:100000000C94D0030C944A0A0C94ED030C94ED0369
:100010000C94ED030C945E0A0C94C20A0C94ED034C
:100020000C94ED030C946A0A0C94ED030C94ED030C
:100030000C94ED030C94780A0C94ED030C94ED03EE
:100040000C94ED030C94ED030C94EC090C94ED036B
:100050000C94ED030C94ED030C94ED030C94ED0360
:100060000C94ED030C94ED03370C060F060F060FEE
:10007000C20C060F060F060F060F810E060F060FA5
:10008000060F690C060FB90E610D060F060F270E3D
:10009000060F060F060F360E23492309002345528B
:1000A000522309000A0023562309006363313130CB
:1000B000313A2073746F70206173796E63006363EB
:1000C000313130313A20756E6578706563746564DE
:1000D00020737461746520696E206173796E63208A
:1000E00025687500496E2049444C45206D6F646554
:1000F000207768696C65206173796E630072737331
:1001000069206973202564006261642073657175DC
:10011000656E6365206E756D6265722C2065787002
:1001200065637465642025642E2E256420676F74D2
:10013000202564007061636B65742066726F6D20AA
:1001400077726F6E6720616464726573732C2077B9
:10015000616E7465642030782530327820676F7462
:100160002030782530327800556E68616E646C6599
:1001700064206865617274626561742066726F6D77
:10018000202575004465666572726564207265613C
:10019000642073657373696F6E20666F72202575B6
:1001A00000676F74207061636B65742066726F6D99
:1001B00020616E6F74686572206D61737465722C56
:1001C000206261636B696E67206F666600706163B1
:1001D0006B65742069736E27742061646472657343
:1001E00073656420746F2061206D617374657200A3
:1001F0006E6F20726573706F6E736520696E202557
:10020000752074726965730D0A0073756363657395
:1002100073206F6E20617474656D70742025752C69
:1002200020737461747573202D20253034780D0A85
:10023000002349230950696E67696E672025752E72
:100240002E2E2000676F7420726573706F6E736559
:10025000206F6E20617474656D70742025642C208D
:100260007374617475732025303278007061636B2C
:100270006574206973206E6F7420666F72207468D5
:100280006520726567697374657220776520776190
:100290006E7465642C2077616E74656420307825F7
:1002A00030327820676F74203078253032780072D1
:1002B00065616420726567697374657220256420C6
:1002C00066726F6D20256400556E72656769737480
:1002D0006572696E6720256400526567697374658D
:1002E00072696E6720256420617420256400556E54
:1002F0007265676973746572696E67202564004D65
:100300006F7265207468616E206D6178696D756DBE
:10031000202564206E6F6465206E756D6265727352
:1003200020676976656E00496E76616C6964206E3F
:100330006F6465206E756D6265723A20272573279C
:1003400000C00000000000006363313130313A200A
:10035000706172746E756D20257820766572736990
:100360006F6E202578006363313130313A2061733C
:10037000796E63207761697420666F7220706163A3
:100380006B6574003C3C643A3078253032780A0062
:100390004E6F2064617461206361636865642066E8
:1003A0006F722025640067657474696E67206361ED
:1003B000636865642072656769737465722025647B
:1003C000206F66202564003C3C67723A3078253007
:1003D00032783A3078253032783A307825303278B1
:1003E0003A3078253034780A003C3C73723A3078E1
:1003F000253032783A3078253032783A30782530E6
:1004000032783A3078253034780A00676F74207279
:100410006573706F6E7365206F6E20617474656DA7
:1004200070742025642C20737461747573202530DA
:100430003278007061636B6574206973206E6F742D
:1004400020666F72207468652072656769737465D1
:10045000722077652077616E7465642C2077616EF9
:100460007465642030782530327820676F742030CE
:10047000782530327800736574207265676973740B
:100480006572202564206F66202564003C3C7A3A22
:100490003078253032780A003C3C613A307825309B
:1004A00032780A003C3C690A0067697665207570FD
:1004B00000676976652075700073656E64696E67A4
:1004C00020697420746F20736C656570006B6565BE
:1004D00070206177616B6520617320776527726595
:1004E00020696E20696E7374616C6C206D6F646539
:1004F00000446F6E6520776974682025642C202580
:1005000053006361636865642074656D7065726132
:10051000747572652076616C75652030782530348D
:100520007820666F722025640063616368656420CB
:1005300068756D69646974792076616C75652030C1
:10054000782530347820666F72202564006E6F64E1
:10055000655F646220616E642070656E64696E67B9
:100560005F73657373696F6E7320636F756E74204C
:100570006D69736D6174636821004E6F20737563DC
:100580006820636F6D6D616E6421003C3C300A0031
:100590003C3C300A004661696C656420746F2072CF
:1005A00065676973746572206D616E61676564204B
:1005B000736574003C3C300A003C3C300A003C3C13
:1005C000763A353963343232623436383734306211
:1005D00066313064346666323466363234303764BD
:1005E000666362663732323061630A003C3C300A2F
:1005F000003C3C300A003C3C300A007573652063C7
:10060000616368656420726573706F6E7365003C2A
:100610003C300A003C3C300A0073657474696E67B4
:10062000206368616E6E656C20746F2025640063C2
:100630006F6D6D616E6420627566666572202573EC
:100640000072756E6E696E67207265762E20353980
:100650006334323262343638373430626631306473
:1006600034666632346636323430376466636266C6
:1006700037323230616320636F64650069276D2013
:1006800061206D6173746572004649464F20756E36
:10069000646572666C6F773F2100496E636F6D70A1
:1006A0006C657465207061636B657420617420747F
:1006B000696D656F7574206D61726B2100636331C4
:1006C0003130313A20436F727275707420706163FB
:1006D0006B65742061742074696D656F7574206D2D
:1006E00061726B212028435243206572726F722C15
:1006F000207374617475732025303478290050613B
:10070000636B6574206174207468652074696D651D
:100710006F7574206D61726B21006363313130310C
:100720003A20436F7272757074207061636B6574E8
:100730002069676E6F72656420284352432065729A
:10074000726F722C20737461747573202530347845
:1007500029006363313130313A2073707572696FEB
:10076000757320696E746572727570743F0063638F
:10077000313130313A20496E74657272757074206F
:100780007369676E616C6C656420666F7220696E58
:10079000636F6D706C657465207061636B65740068
:1007A00011241FBECFEFD8E0DEBFCDBF22E0A4E111
:1007B000B1E001C01D92AF3AB207E1F711E0A0E04D
:1007C000B1E0ECE6F9E202C005900D92A431B10768
:1007D000D9F70E94CC0A0C94B4140C940000E1E206
:1007E000F1E020E030E097E0929FD001939FB00DC0
:1007F0001124A05EBE4F4C91442319F0408148174C
:1008000041F02F5F3F4F37962032310569F78FEF68
:100810000895822F0895FC0122812F3F11F080E07E
:100820000895FC0181810E94EF0387FDF8CF97E0D6
:100830008902F0011124E05EFE4F8081813079F75A
:1008400092E09083909100029F5F90930002089540
:1008500080911F018F5F8F3F19F080931F010895D2
:1008600010921F0108958EBD0DB407FEFDCF8EB509
:1008700008952A9A08952A980895CF93DF931F9296
:10088000CDB7DEB789830E943B04898180680E94CE
:10089000330480E00E94330489830E9439048981F3
:1008A0000F90DF91CF910895CF93DF9300D0CDB714
:1008B000DEB76A8389830E943B0489810E943304E6
:1008C0006A81862F0E9433040F900F90DF91CF91A1
:1008D0000C943904CF93C82F0E943B048C2F0E94A4
:1008E0003304C03311F41C99FECFCF910C9439041A
:1008F000EF92FF920F931F93CF93DF93EC018BE75F
:100900000E943D04882331F197EF980F973728F024
:100910008AE30E946A0482E020C00E943B048FEFB9
:100920000E9433048E017E0189E0E80EF11C80E014
:100930000E943304F80181938F01EE15FF05B9F78A
:100940000E9439048AE30E946A04888587FF04C0F4
:1009500080E003C081E001C083E0DF91CF911F916F
:100960000F91FF90EF900895E4E6F0E080818B7F97
:10097000808381E58CBD08951F920F920FB60F9270
:1009800011242F933F934F935F936F937F938F9394
:100990009F93AF93BF93EF93FF930E94B40484E1BE
:1009A00091E00E94780481110AC084E191E00E94E4
:1009B0000B04882321F010921E01E89803C084E301
:1009C0000E946A0480916400846080936400FF91B7
:1009D000EF91BF91AF919F918F917F916F915F91B7
:1009E0004F913F912F910F900FBE0F901F90189530
:1009F0008091C00087FFFCCF8091C60090E00895F1
:100A0000CF93C82F8A3019F48DE00E9400058091A1
:100A1000C00085FFFCCFC093C6008C2FCC0F990B74
:100A2000CF910895EF92FF920F931F93CF93DF938F
:100A3000CDB7DEB78E01075F1F4FF801E190F1904F
:100A40008F0186EA90E09F938F930E947511A80111
:100A5000B7018091A9029091AA020E949B1184EA99
:100A600090E09F938F930E9475118FE697E1019715
:100A7000F1F700C000000F900F900F900F90DF91E2
:100A8000CF911F910F91FF90EF900895082E000CC9
:100A9000990B8459910997FD0196959587959F9398
:100AA0008F938DEF90E09F938F930E9412050F908C
:100AB0000F900F900F900895F8940E94B40486E36D
:100AC0000E946A048AE30E946A04E89810921E0158
:100AD000E4E6F0E080818460808378948BEA90E0A3
:100AE0009F938F930E9412050F900F900895EF929D
:100AF000FF920F931F93CF93DF93CDB7DEB78E0195
:100B0000075F1F4FF801E190F1908F018DE990E0B0
:100B10009F938F930E947511A801B7018091A9023C
:100B20009091AA020E949B1184EA90E09F938F9378
:100B30000E9475118FE697E10197F1F700C0000060
:100B40000F900F900F900F90DF91CF911F910F9109
:100B5000FF90EF900895CF93DF930E94B40481E358
:100B60000E946A040E943B048FE70E943304C1E99B
:100B7000D2E089910E94330482E0C839D807C9F7CE
:100B80000E94390485E30E946A0485E70E943D04BF
:100B9000813041F480916400846080936400DF912F
:100BA000CF910895863189F789E896E09F938F93D6
:100BB0000E9477058BE30E946A040F900F9085E7EF
:100BC0000E943D048130D9F7E5CF4F925F926F923A
:100BD0007F928F929F92AF92BF92CF92DF92EF92CD
:100BE000FF920F931F93CF93DF93CDB7DEB7A097FC
:100BF0000FB6F894DEBF0FBECDBF6EE071E00E946D
:100C000049117C01892B99F1BE016F5F7F4F5B0118
:100C100010E06B014AE050E060E070E0C7010E9424
:100C20002F102B013C01E1E04E1A510861087108B8
:100C3000FFEF4F1651046104710428F0FF92EF9208
:100C400087E293E0C6C0F50161935F016EE071E059
:100C500080E090E00E9449117C01892BD9F11F5F4F
:100C60001032C1F61F921F938FEF92E0B2C001E2E3
:100C700011E0E12CF12C27E0B22E38ECC32E32E04B
:100C8000D32EBE9CF001BF9CF00D1124E05EFE4F00
:100C90008081882361F0F80180811F928F93DF9219
:100CA000CF920E9412050F900F900F900F90BE9C54
:100CB000F001BF9CF00D1124E05EFE4F1082FFEFAB
:100CC000EF1AFF0A095F1F4F20E2E216F104C9F68E
:100CD00081E088C081E2A82E81E0B82EE12CF12CC1
:100CE00007E09EEE892E92E0992E0E9DF0010F9D59
:100CF000F00D1124E05EFE4F8081882311F1F50193
:100D0000908180E0F601E80FF11D2081921302C06E
:100D1000108203C08F5F1817A8F7181790F41F925E
:100D20009F939F928F920E9412050E9DF0010F9D3E
:100D3000F00D1124E05EFE4F10820F900F900F9087
:100D40000F90FFEFEF1AFF0A27E0A20EB11C60E23E
:100D5000E616F10451F600E0712C47E0642E59EDDF
:100D6000852E52E0952E55245394A02EB12CF601D9
:100D7000EA0DFB1D2081222341F1872D90E0689E22
:100D8000A001699E500D1124FA01E05EFE4F7F0123
:100D90003081332311F07394F0CF9F937F921F9291
:100DA0002F939F928F920E941205F894F701508220
:100DB000F601EA0DFB1D8081F701818378940F9085
:100DC0000F900F900F900F900F900F5F101768F615
:100DD0007FCF9F938F930E9477050F900F900F9076
:100DE0000F9080E0A0960FB6F894DEBF0FBECDBF87
:100DF000DF91CF911F910F91FF90EF90DF90CF90F7
:100E0000BF90AF909F908F907F906F905F904F902A
:100E100008951F93CF93DF931F92CDB7DEB70E9443
:100E2000B40485E70E943D04813061F0F0F09AEF50
:100E3000980F9A30D0F480916400846080936400AD
:100E400081E03BC010921E011FB77894809164002E
:100E500084608093640084EE90E09F938F930E945F
:100E600077051FBF0F900F9027C01FB778941F9270
:100E70008F932EEB30E03F932F9389830E941205CE
:100E80000F900F900F900F908981863111F48BE3B2
:100E900003C0813119F48AE30E946A0486E30E9448
:100EA0006A0485E70E943D048130D9F7809164008F
:100EB0008460809364001FBF82E00F90DF91CF9128
:100EC0001F910895EF92FF920F931F93CF93DF939B
:100ED000CDB7DEB78E01075F1F4FF801E190F190AB
:100EE0008F0188E990E09F938F930E947511A8016C
:100EF000B7018091A9029091AA020E949B1184EAF5
:100F000090E09F938F930E9475118FE697E1019770
:100F1000F1F700C000000F900F900F900F90DF913D
:100F2000CF911F910F91FF90EF900895DF92EF9274
:100F3000FF920F931F93CF93DF93EC018091810079
:100F4000811107C091E0209709F490E0092F182F34
:100F500002C001E010E00E94B404FF24F394FCBA44
:100F6000E89A84E30E946A04209711F1809164005A
:100F7000877F80936400F0926F00F894109298023B
:100F80001092990210929A0210929B028827992738
:100F90008C1B9D0B9093850080938400789485E052
:100FA0008093810083B7817F83BF83B7816083BFD4
:100FB000DD24D3948AE1E82E87E0F82EF894E89BAC
:100FC0000BC00115110521F0809181008823A1F14A
:100FD000789488950000F2CF78948CE992E00E9492
:100FE0007804813011F108F45DC08230B1F08330B3
:100FF00019F5DCBAE89A84E30E946A048091A4029D
:101000008F938091A3028F93FF92EF920E946207C9
:101010000F900F900F900F90D1CF8EE697E09F9397
:101020008F930E9477050F900F9082E597E09F9332
:101030008F930E94770533C0789486E30E946A04F8
:1010400085E70E943D048130D9F78CE992E00E9447
:1010500078048230F1F0833059F0811125C08EEF91
:1010600096E09F938F930E9462070F900F901AC093
:101070008091A4028F938091A3028F938DEB96E0D1
:101080009F938F930E9462070F900F900F900F9085
:101090000BC08AE996E09F938F930E9462070F909E
:1010A0000F9002C081E001C080E0909164009460E4
:1010B00090936400E898CD2B39F0109281009091C4
:1010C0006400986090936400DF91CF911F910F911D
:1010D000FF90EF90DF90089590919C029923F1F09A
:1010E0008DEC91E09F938F930E9412050F900F90CB
:1010F00080919D0281116DC081EA91E09F938F9351
:101100000E9412052FE788E391E021508040904033
:10111000E1F700C000000F900F905BC090919E021D
:101120009F3FF1F48CE992E00E940B0490919D02A4
:10113000813049F41F929F9384E891E09F938F93AD
:101140000E94620708C01F929F9388E691E09F93D8
:101150008F930E9412050F900F900F900F9039C03F
:1011600020919D02821789F01F922F931F928F93D7
:1011700084E391E09F938F930E9412050F900F904C
:101180000F900F900F900F9024C020911F016217B5
:1011900020F481E0961738F003C0961718F481E028
:1011A000921708F480E08170B1F01F929F931F9214
:1011B0002F931F926F9388E091E09F938F930E94EB
:1011C00012058DB79EB708960FB6F8949EBF0FBE56
:1011D0008DBF80E0089581E008959F92AF92BF9205
:1011E000CF92DF92EF92FF920F931F93CF93DF93F3
:1011F000082F162F7A0190901F01C62ED12C1F9216
:101200008F931F926F938FEA92E09F938F930E9428
:1012100012050F900F900F900F900F900F90C0E05D
:10122000D0E08CE6A82E82E0B82E80911F011092AB
:101230009202009391028093930210929402109371
:1012400095020E9428040E94AB0585E39CE00E9461
:1012500096078823F1F1692D802F0E946C0888235E
:10126000C1F18091A002181779F01F928F93DF923D
:10127000CF92BF92AF920E9412050F900F900F90E5
:101280000F900F900F9025C08091A4028F938091B2
:10129000A3028F93DF93CF9384E492E09F938F9385
:1012A0000E9412058091A3020E9446058091A1022E
:1012B0009091A202F7019183808381E00F900F90BB
:1012C0000F900F900F900F9090919F02992351F0E3
:1012D00008C02196C431D10509F0A7CFF7011182CA
:1012E000108280E0DF91CF911F910F91FF90EF90DE
:1012F000DF90CF90BF90AF909F900895CF92DF92F4
:10130000EF92FF920F931F93CF93DF93E82EC62F98
:10131000D0901F011F928F9381E392E09F938F9350
:101320000E9475110F900F900F900F9000E010E049
:10133000D0E08DEFC82E0C171D07B8F580911F0166
:1013400010929202E092910280939302C0929402D2
:101350000E9428040E94AB058BE196E00E9496074C
:10136000882301F16D2D8E2D0E946C08F82E8823A4
:10137000C9F08091A4028F938091A3028F931F9351
:101380000F938AE092E09F938F930E947511809152
:10139000A3020E9446050F900F900F900F900F90A0
:1013A0000F9010C00F5F1F4FC6CFDF93CF9380EF1A
:1013B00091E09F938F930E9475110F900F900F9063
:1013C0000F90F12C8F2DDF91CF911F910F91FF90F6
:1013D000EF90DF90CF9008951F920F920FB60F926B
:1013E00011242F933F934F938F939F93EF93FF93EA
:1013F00080919002811142C080918F0281111FC0A3
:101400004091C6004E33B1F480918D0290918E02CE
:101410009C012F5F3F4F30938E0220938D02FC0181
:10142000EF5FFD4F40832230310541F581E080932D
:101430008F0224C010928E0210928D021FC08091E4
:101440008D0290918E022091C600FC01EF5FFD4F4E
:1014500020832A3059F4118210928E0210928D024C
:1014600081E08093900210928F0208C08B38910522
:1014700028F4019690938E0280938D02FF91EF9154
:101480009F918F914F913F912F910F900FBE0F9091
:101490001F9018950F920FB60F922F9320911E0157
:1014A000222331F02F910F900FBE0F900C94BC04AB
:1014B000E8982F910F900FBE0F9018951F920F92E2
:1014C0000FB60F921124109268000F900FBE0F906C
:1014D0001F9018951F920F920FB60F921124109221
:1014E000B1001092B2000F900FBE0F901F90189590
:1014F0001F920F920FB60F9211244F935F936F9329
:101500007F938F939F93AF93BF9380919802909115
:101510009902A0919A02B0919B020097A105B10592
:1015200011F1AC01BD0144275527452B462B472B14
:1015300051F011978093980290939902A0939A0288
:10154000B0939B0212C0919581959109909385006B
:1015500080938400109298021092990210929A023D
:1015600010929B0202C010928100BF91AF919F9197
:101570008F917F916F915F914F910F900FBE0F9060
:101580001F9018951F920F920FB60F9211240F9073
:101590000FBE0F901F901895CF93DF9300D000D00F
:1015A00000D0CDB7DEB71C821B82809164008F6EA5
:1015B00080936400809164008D7F8093640010921A
:1015C000C50080E18093C4008091C0008260809358
:1015D000C00086E08093C20088E18093C1008091C2
:1015E000C10080688093C10083B7817F83BF83B7C8
:1015F000816083BF80E091E09093A8028093A7026E
:101600009093AA028093A902229A24980E943904F6
:1016100052985A9884B1886284B92FEF30E782E0FB
:10162000215030408040E1F700C000000E94B40427
:101630000E943B049FEFA0E7B2E09150A040B04071
:10164000E1F700C000001C99FECF0E94390480E33E
:101650000E946A0480E70E943D04182F81E70E94DF
:101660003D041F928F931F921F9388E493E09F93F2
:101670008F930E94620764E088E00E94540464E053
:1016800087E00E94540467E086E00E94540462EA06
:1016900083E10E94540466E08BE00E94540460E100
:1016A0008DE00E94540461EB8EE00E94540461E6D8
:1016B0008FE00E94540466EF80E10E94540463E8C6
:1016C00081E10E94540463E182E10E94540465E1D7
:1016D00085E10E94540468E188E10E94540466E1B7
:1016E00089E10E9454046BEF80E20E94540469EE89
:1016F00083E20E9454046AE284E20E94540460E09F
:1017000085E20E9454046FE186E20E94540461E87D
:101710008CE20E94540465E38DE20E94540469E067
:101720008EE20E94540461E082E00E94540461E46D
:1017300083E00E9454040E943B048EE70E9433041D
:1017400001E413E00F900F900F900F900F900F9007
:10175000F80184910E9433040F5F1F4FF3E00834B7
:101760001F07B1F70E943904809164008460809360
:1017700064008091690083608093690081E08CBB84
:1017800078948CE796E09F938F930E94620781E4A0
:1017900096E09F938F930E9462070F900F900F9097
:1017A0000F9010E001E09AE7292E95E0392E20E90C
:1017B000422E25E0522E33E3A32E34E0B32EF894CC
:1017C0008091000281112DC080919002811129C069
:1017D00080911E01882351F00E940907882331F06F
:1017E000823071F3789488950000E9CFF8940E94D4
:1017F000B40421E020931E010CBBE89A84E30E940C
:101800006A04809164008460809364007894A6E602
:10181000B3E0BF93AF930E941205F8940F900F901E
:10182000CFCF80919002882309F400C37894A1E07F
:10183000B2E0BF93AF93AFE2B6E0BF93AF930E9425
:1018400062070F900F900F900F90E09103028E2F80
:10185000EE0F990BAA0BBB0BFC01E356F109E83123
:10186000F10508F0D3C2EC5CFF4F0C94AE1461E1BB
:1018700071E081E092E00E94491161E171E080E055
:1018800090E00E94491140E150E060E070E00E9469
:101890002F101F926F9389E196E09F938F936E8331
:1018A0000E9412051092900284E196E09F938F931C
:1018B0000E9475110E945C050E94B4046E818AE04A
:1018C0000E9454040F900F900F900F900F900F9064
:1018D000ADC261E171E081E092E00E94491161E1F5
:1018E00071E080E090E00E9449116C0161E171E0DB
:1018F00080E090E00E9449117C0140E150E060E00E
:1019000070E0C6010E942F10D62E40E150E060E04A
:1019100070E0C7010E942F10109290028FE096E0B5
:101920009F938F936E830E9475118D2D0E94EF03FC
:101930000F900F9087FF09C00E945C056E818D2D6E
:101940000E947E098823C9F013C02BEF35E03F9336
:101950002F938E830E9412058E8127E08202F00170
:101960001124E05EFE4F80810F900F90813029F0AE
:101970001F92DF9288E994E0BFC11F92DF9284E852
:1019800093E0BAC161E171E081E092E00E94491107
:1019900061E171E080E090E00E9449116C0161E139
:1019A00071E080E090E00E9449117C0140E150E04C
:1019B00060E070E0C6010E942F10962E40E150E0DA
:1019C00060E070E0C7010E942F10862E10929002F6
:1019D00086EF95E09F938F930E947511892D0E9449
:1019E000EF030F900F9087FF13C00E945C05AE01BC
:1019F0004D5F5F4F682D892D0E94ED082C819B81E2
:101A0000882319F02F939F930FC32F939F9322C383
:101A1000C82CD12CB7E08B0270011124F701E05ED5
:101A2000FE4F3F0181811F928F931F928F9286EA12
:101A300093E09F938F930E941205F894D3018C91A9
:101A40000F900F900F900F900F900F90833049F5EB
:101A5000F6013196EE0FFF1FEE0DFF1DE05EFE4F0B
:101A6000808191819C838B8381E090E0082C01C070
:101A7000880F0A94EAF716969C911697892B16966A
:101A80008C9316978370833009F40C9378948B8130
:101A90009C818F3FBFEF9B0709F4D8C29F938F9320
:101AA000C3C27894F30181811F928F9380E993E000
:101AB0009F938F930E9412050F900F900F900F909D
:101AC000C5C261E171E081E092E00E94491161E1EB
:101AD00071E080E090E00E9449113C0161E171E019
:101AE00080E090E00E9449114C0161E171E080E0EA
:101AF00090E00E9449117C0140E150E060E070E01C
:101B0000C3010E942F10D62E40E150E060E070E04B
:101B1000C4010E942F10C62E40E150E060E070E04A
:101B2000C7010E942F1077277C836B83109290024D
:101B300081EF95E09F938F930E9475110E945C0541
:101B40006B807C8020911F012D838C2C912C1F9207
:101B5000DF921F92CF9286E794E09F938F930E942B
:101B600012050FB6F894DEBF0FBECDBFE12CF12CED
:101B700080911F0110929202D09291028093930261
:101B800091E090939402C0929502709297026092B5
:101B900096020E9428040E94AB058BE196E00E9409
:101BA0009607882309F440C06D818D2D0E946C0832
:101BB0008823D1F18091A002C81679F01F928F93EB
:101BC0009F928F92BF92AF920E9412050F900F903A
:101BD0000F900F900F900F9027C08091A4028F93C9
:101BE0008091A3028F93FF92EF928BE094E09F93FA
:101BF0008F930E9412058091A3020E944605809156
:101C0000A2028F938091A1028F938091A0021F92D4
:101C10008F931F921F9280919D021F928F9389EE46
:101C200093E09F938F930AC2BFEFEB1AFB0AE4E1A4
:101C3000EE16F10409F09CCF1F921F921F92CF92D3
:101C40001F920F931F92DF9289EE93E0F5C11092DD
:101C500090028CEE95E09F938F930E9475118EEB0E
:101C600095E09F938F930E947511DCC061E171E054
:101C700081E092E00E94491161E171E080E090E032
:101C80000E94491140E150E060E070E00E942F1096
:101C9000F62E1092900289EB95E09F938F930E940D
:101CA00075118F2D0E94EF030F900F9087FF12C0C8
:101CB0000E945C050E94280480911F0110929202EC
:101CC000F0929102809393028BEF809394020E9492
:101CD000AB050EC08F2D0E94EF0387FD09C0F8945D
:101CE00027E08202F0011124E05EFE4F0083789429
:101CF0001F92FF928CE894E09F938F930E9475113E
:101D000091C01092900284EB95E09F938F930E9474
:101D1000751180911D0120E2280F0F900F9037E080
:101D2000803218F090EE980F01C0982F399FF00183
:101D30001124E05EFE4F4081433099F49F5F909301
:101D40001D018181882381F01F928F9388E994E09F
:101D50009F938F930E9475110F900F900F900F908B
:101D600003C08F5F8213DCCF84EA94E09F938F934C
:101D700048C0809104028A3379F4809105028A3345
:101D800059F480E191E00E94E50540E150E060E017
:101D900070E086E092E029C061E171E081E092E0CC
:101DA0000E94491161E171E080E090E00E944911D8
:101DB0006C0161E171E080E090E00E9449117C01DA
:101DC000C6010E94E505811108C085E995E09F9351
:101DD0008F930E9477050F900F90E114F10461F04A
:101DE00040E150E060E070E0C7010E942F1011E078
:101DF000672B682B692B09F410E0109290025F9218
:101E00004F920E9475110F900F9010C01092900287
:101E1000ABE8B5E0BF93AF930E9475113F922F924C
:101E20000E9477050F900F900F900F90F89480917B
:101E30000002882309F4C3CC812C912C87E0889D73
:101E4000F001899DF00D1124E05EFE4F90819230EB
:101E500009F0D5C080911E01882331F00E94090746
:101E6000813011F40E945C057894111117C027E0AD
:101E7000289DC001299D900D11249C01205E3E4F9C
:101E80007901AE014F5F5F4F61E0D90111968C91EE
:101E90000E94ED08882309F482C00FC087E0889D66
:101EA000F001899DF00D1124E05EFE4F64E0818118
:101EB0000E947E098111DBCF72C089819A81F7016E
:101EC0008483958321811F922F939F938F9389E21F
:101ED00095E09F938F930E941205AE014F5F5F4F75
:101EE00060E0D70111968C910E94ED080F900F9041
:101EF0000F900F900F900F90F7013296882309F4FE
:101F000064C089819A81D70112968C93129791832C
:101F100011962C911F922F939F938F9382E095E0BF
:101F20009F938F930E94120583E0F70180831682AE
:101F30000F900F900F900F900F900F90111113C0F2
:101F4000F1800E94280480911F0110929202F09269
:101F50009102809393028BEF809394020E94AB05D1
:101F600089EB94E002C08DEC94E09F938F9387E01F
:101F7000889DF001899DF00D1124E05EFE4F818166
:101F80001F928F9381EF94E09F938F930E9462073B
:101F90000F900F900F900F900F900F9029C081EB32
:101FA00094E09F938F930E94770587E0889DF001CE
:101FB000899DF00D1124E05EFE4F8FEF9FEF95831A
:101FC000848393838283008311C089EA94E09F9382
:101FD0008F930E9477058FEF9FEFD70113969C9305
:101FE0008E93129783E08C9316961C920F900F900D
:101FF000F8948091000281508093000213C0BFEFDB
:102000008B1A9B0AE0E28E16910409F018CF109209
:10201000000278948DE495E09F938F930E9477055A
:102020000F900F907894CBCB1F928F921F921F929C
:102030001F929F9287EC93E09F938F930E9475115C
:102040000FB6F894DEBF0FBECDBFF0CE8C818F935C
:102050008B818F931F928F921F920F93E9CFA0E0F5
:10206000B0E0E5E3F0E10C9468145C016B017A01E7
:102070006115710519F0FB0191838083E114F1046E
:1020800029F0C7010297839708F0F1C0E501219676
:10209000F5011081812F90E00E944011892B11F0F1
:1020A0005E01F4CF1D3229F42196F501118101E082
:1020B00007C01B3221F4E5012296F501118100E0F1
:1020C000E114F10459F1F0E1EF16F10461F4103379
:1020D000E1F488818F7D883569F519812296026047
:1020E00070E1E72EF12C88E0E816F10439F12CF4C8
:1020F000F2E0EF16F104C9F12AC08AE0E816F10413
:1021000079F0E0E1EE16F10411F550E1E52EF12C45
:10211000812C912CA12C68E0B62E2CC01033C9F272
:102120003AE0E32EF12C4CEC842E982CA82C4CE0B9
:10213000B42E20C010E3E114F104A9F698E0E92ED2
:10214000F12C812C912CA12C20E1B22E13C060E047
:1021500070E080E090E897010F2C000C440B550BC9
:102160000E943B1449015A0105C0812C912CA12CDD
:1021700080E4B82E60E020E030E0A90127010F2CB8
:10218000000C660877081E01E0EDE10FEA3060F010
:102190008FEB810F8A3110F4E9EC05C08FE9810FD4
:1021A0008A3128F5E9EAE10F8E2F90E08E159F0520
:1021B000F4F467FD18C082169306A406B50690F0E5
:1021C000C301B2010E942B149B01AC012E0F311DE3
:1021D000411D511D213031054105F0E85F0710F424
:1021E00061E001C06FEF2196F1011081CCCF802F0B
:1021F0008170C114D10471F0662329F02197F60192
:10220000D183C08307C001FF19C02297F601D18393
:10221000C08314C067FF12C0811105C02FEF3FEFCC
:102220004FEF5FE704C020E030E040E050E882E29A
:1022300090E09093AE028093AD0216C0882341F0E7
:1022400050954095309521953F4F4F4F5F4F0CC0B3
:1022500057FF0AC082E290E09093AE028093AD02F5
:102260002FEF3FEF4FEF5FE7B901CA0104C060E015
:1022700070E080E090E0CDB7DEB7E2E10C9484142A
:1022800091110C947C13803219F089508550C8F755
:10229000089545EA52E00E944E110895FA01A19175
:1022A000B081009719F41097E1F0CD01DC01CD0168
:1022B0000D90002011F4C00113C0FB0121912223D5
:1022C00019F02015D9F7F3CFFB012191201519F44E
:1022D0001E92119606C02223C1F70D900020A1F78F
:1022E000D001FA01A193B0830895A0E0B0E0EBE73C
:1022F000F1E10C947614AE01495F5F4FDA016D9104
:102300007D91AD0107EA12E0F80182819381DC0141
:1023100013962C911397286013962C930E94AA1160
:10232000D8011296ED91FC9113972381277F238387
:10233000E4E00C949214CF93DF93EC018B818860DE
:102340008B83CE010E94AA112B81277F2B83DF91E3
:10235000CF910895ACE0B0E0E0EBF1E10C946814AB
:102360007C016B018A01FC0117821682838181FF47
:10237000BDC1CE0101964C01F7019381F60193FD99
:10238000859193FF81916F01882309F4ABC1853258
:1023900039F493FD859193FF81916F01853229F482
:1023A000B70190E00E949513E7CF512C312C20E02B
:1023B0002032A0F48B3269F030F4803259F083324D
:1023C00069F420612CC08D3239F0803339F42160FA
:1023D00026C02260246023C0286021C027FD27C0BA
:1023E00030ED380F3A3078F426FF06C0FAE05F9EF1
:1023F000300D1124532E13C08AE0389E300D112465
:10240000332E20620CC08E3221F426FD6BC1206475
:1024100006C08C3611F4206802C0883641F4F601FB
:1024200093FD859193FF81916F018111C1CF982F09
:102430009F7D9554933028F40C5F1F4FFFE3F98381
:102440000DC0833631F0833771F0833509F05BC0FE
:1024500022C0F801808189830E5F1F4F442443947A
:10246000512C540115C03801F2E06F0E711CF801B7
:10247000A080B18026FF03C0652D70E002C06FEF21
:102480007FEFC5012C870E948A132C0183012C85C4
:102490002F77222E17C03801F2E06F0E711CF80161
:1024A000A080B18026FF03C0652D70E002C06FEFF1
:1024B0007FEFC5012C870E947F132C012C8520689B
:1024C000222E830123FC1BC0832D90E04816590661
:1024D000B0F4B70180E290E00E9495133A94F4CFF3
:1024E000F50127FC859127FE81915F01B70190E0FE
:1024F0000E94951331103A94F1E04F1A510841149B
:10250000510471F7E5C0843611F0893639F5F801C8
:1025100027FF07C060817181828193810C5F1F4F0B
:1025200008C060817181072E000C880B990B0E5F2B
:102530001F4F2F76722E97FF09C09095809570954A
:1025400061957F4F8F4F9F4F2068722E2AE030E0B9
:10255000A4010E94CD13A82EA81844C0853729F4E1
:102560002F7EB22E2AE030E025C0F22FF97FBF2E59
:102570008F36C1F018F4883579F0B4C0803719F07F
:10258000883721F0AFC02F2F2061B22EB4FE0DC0CE
:102590008B2D8460B82E09C024FF0AC09F2F96603F
:1025A000B92E06C028E030E005C020E130E002C0CE
:1025B00020E132E0F801B7FE07C0608171818281BD
:1025C00093810C5F1F4F06C06081718180E090E0B5
:1025D0000E5F1F4FA4010E94CD13A82EA818FB2D3B
:1025E000FF777F2E76FE0BC0372D3E7FA51450F46B
:1025F00074FE0AC072FC08C0372D3E7E05C0BA2C9E
:10260000372D03C0BA2C01C0B52C34FF0DC0FE011C
:10261000EA0DF11D8081803311F4397E09C032FF4B
:1026200006C0B394B39404C0832F867809F0B394A2
:1026300033FD13C030FF06C05A2CB31418F4530CEA
:102640005B18B32CB31468F4B70180E290E03C87C8
:102650000E949513B3943C85F5CFB31410F43B1846
:1026600001C0312C34FF12C0B70180E390E03C87F9
:102670000E9495133C8532FF17C031FD03C088E7E7
:1026800090E002C088E590E0B7010CC0832F867807
:1026900059F031FF02C08BE201C080E237FD8DE2CC
:1026A000B70190E00E949513A51438F4B70180E3B8
:1026B00090E00E9495135A94F7CFAA94F401EA0D82
:1026C000F11D8081B70190E00E949513A110F5CF14
:1026D000332009F451CEB70180E290E00E949513B7
:1026E0003A94F6CFF7018681978102C08FEF9FEF72
:1026F0002C96E2E10C948414992788270895FC0114
:102700000590615070400110D8F7809590958E0F1C
:102710009F1F0895FC016150704001900110D8F78F
:10272000809590958E0F9F1F08950F931F93CF93C1
:10273000DF93FB01238121FD03C08FEF9FEF28C0B2
:1027400022FF16C0468157812481358142175307E5
:1027500044F4A081B1819D012F5F3F4F31832083DD
:102760008C93268137812F5F3F4F3783268310C09C
:10277000EB01092F182F0084F185E02D0995892B95
:10278000E1F68E819F8101969F838E83812F902F0A
:10279000DF91CF911F910F910895FA01AA27283058
:1027A00051F1203181F1E8946F936E7F6E5F7F4F1E
:1027B0008F4F9F4FAF4FB1E03ED0B4E03CD0670F9A
:1027C000781F891F9A1FA11D680F791F8A1F911DED
:1027D000A11D6A0F711D811D911DA11D20D009F43D
:1027E00068943F912AE0269F11243019305D31937F
:1027F000DEF6CF010895462F4770405D4193B3E068
:102800000FD0C9F7F6CF462F4F70405D4A3318F00E
:10281000495D31FD4052419302D0A9F7EACFB4E0BF
:10282000A6959795879577956795BA95C9F7009777
:102830006105710508959B01AC010A2E0694579518
:10284000479537952795BA95C9F7620F731F841F6F
:10285000951FA01D0895DB018F939F930E945D1427
:10286000BF91AF91A29F800D911DA39F900DB29F2C
:10287000900D11240895A1E21A2EAA1BBB1BFD0185
:102880000DC0AA1FBB1FEE1FFF1FA217B307E4074F
:10289000F50720F0A21BB30BE40BF50B661F771FA7
:1028A000881F991F1A9469F7609570958095909587
:1028B0009B01AC01BD01CF0108950E949F14A59F0B
:1028C000900DB49F900DA49F800D911D112408952B
:1028D0002F923F924F925F926F927F928F929F9230
:1028E000AF92BF92CF92DF92EF92FF920F931F931E
:1028F000CF93DF93CDB7DEB7CA1BDB0B0FB6F894CF
:10290000DEBF0FBECDBF09942A88398848885F840E
:102910006E847D848C849B84AA84B984C884DF807F
:10292000EE80FD800C811B81AA81B981CE0FD11D63
:102930000FB6F894DEBF0FBECDBFED010895A29F84
:10294000B001B39FC001A39F700D811D1124911D83
:10295000B29F700D811D1124911D0895EE0FFF1F70
:0C2960000590F491E02D0994F894FFCF4D
:10296C0000000003000000000005F80400002C0A21
:04297C00003A0A0013
:00000001FF
