:100000000C9458040C9475040C9475040C947504A9
:100010000C9475040C9475040C9475040C9475047C
:100020000C9475040C9475040C9475040C9475046C
:100030000C94FE0A0C9475040C9475040C947504CD
:100040000C9475040C9475040C9475040C9475044C
:100050000C9475040C9475040C9475040C9475043C
:100060000C9475040C9475040C9475040C9475042C
:100070000C9475040C9475040C94E80A0C947504A3
:100080000C9475040C9475040C9475040C9475040C
:100090000C9475040C9475040C9475040C947504FC
:1000A0000C948A0A0C9475040C9475040C947504D1
:1000B0000C9475040C9475040C9475040C947504DC
:1000C0000C9475040C9475040C9475040C947504CC
:1000D0000C9475040C9475040C9475040C947504BC
:1000E0000C9475040C9475040C9475040C947504AC
:1000F0000C9475040C9475040C9475040C9475049C
:100100000C9475040C9475040C9475040C9475048B
:100110000C9475040C9475040C9475040C9475047B
:100120000C9475040C9475040C9475040C9475046B
:100130000C9475040C9475040C9475040C9475045B
:100140000C9475040C9475040C9475040C9475044B
:100150000C9475040C9475040C9475040C9475043B
:100160000C9475040C9475040C9475040C9475042B
:100170000C9475040C947504D70CA30FA30FA30F54
:10018000620DA30FA30FA30FA30F1E0FA30FA30FA7
:10019000A30F090DA30F540F010EA30FA30FC40E3D
:1001A000A30FA30FA30FD30E234923090023455206
:1001B000522309000A0023562309006363313130BA
:1001C000313A2073746F70206173796E63006363DA
:1001D000313130313A20756E6578706563746564CD
:1001E00020737461746520696E206173796E632079
:1001F00025687500496E2049444C45206D6F646543
:10020000207768696C65206173796E63007273731F
:1002100069206973202564006261642073657175CB
:10022000656E6365206E756D6265722C20657870F1
:1002300065637465642025642E2E256420676F74C1
:10024000202564007061636B65742066726F6D2099
:1002500077726F6E6720616464726573732C2077A8
:10026000616E7465642030782530327820676F7451
:100270002030782530327800556E68616E646C6588
:1002800064206865617274626561742066726F6D66
:10029000202575004465666572726564207265612B
:1002A000642073657373696F6E20666F72202575A5
:1002B00000676F74207061636B65742066726F6D88
:1002C00020616E6F74686572206D61737465722C45
:1002D000206261636B696E67206F666600706163A0
:1002E0006B65742069736E27742061646472657332
:1002F00073656420746F2061206D61737465720092
:100300006E6F20726573706F6E736520696E202545
:10031000752074726965730D0A0073756363657384
:1003200073206F6E20617474656D70742025752C58
:1003300020737461747573202D20253034780D0A74
:10034000002349230950696E67696E672025752E61
:100350002E2E2000676F7420726573706F6E736548
:10036000206F6E20617474656D70742025642C207C
:100370007374617475732025303278007061636B1B
:100380006574206973206E6F7420666F72207468C4
:10039000652072656769737465722077652077617F
:1003A0006E7465642C2077616E74656420307825E6
:1003B00030327820676F74203078253032780072C0
:1003C00065616420726567697374657220256420B5
:1003D00066726F6D20256400556E7265676973746F
:1003E0006572696E6720256400526567697374657C
:1003F00072696E6720256420617420256400556E43
:100400007265676973746572696E67202564004D53
:100410006F7265207468616E206D6178696D756DAD
:10042000202564206E6F6465206E756D6265727341
:1004300020676976656E00496E76616C6964206E2E
:100440006F6465206E756D6265723A20272573278B
:1004500000C00000000000006363313130313A20F9
:10046000706172746E756D2025782076657273697F
:100470006F6E202578006363313130313A2061732B
:10048000796E63207761697420666F722070616392
:100490006B6574003C3C643A3078253032780A0051
:1004A0004E6F2064617461206361636865642066D7
:1004B0006F722025640067657474696E67206361DC
:1004C000636865642072656769737465722025646A
:1004D000206F66202564003C3C67723A30782530F6
:1004E00032783A3078253032783A307825303278A0
:1004F0003A3078253034780A003C3C73723A3078D0
:10050000253032783A3078253032783A30782530D4
:1005100032783A3078253034780A00676F74207268
:100520006573706F6E7365206F6E20617474656D96
:1005300070742025642C20737461747573202530C9
:100540003278007061636B6574206973206E6F741C
:1005500020666F72207468652072656769737465C0
:10056000722077652077616E7465642C2077616EE8
:100570007465642030782530327820676F742030BD
:1005800078253032780073657420726567697374FA
:100590006572202564206F66202564003C3C7A3A11
:1005A0003078253032780A003C3C613A307825308A
:1005B00032780A003C3C690A0067697665207570EC
:1005C00000676976652075700073656E64696E6793
:1005D00020697420746F20736C656570006B6565AD
:1005E00070206177616B6520617320776527726584
:1005F00020696E20696E7374616C6C206D6F646528
:1006000000446F6E6520776974682025642C20256E
:1006100053006361636865642074656D7065726121
:10062000747572652076616C75652030782530347C
:100630007820666F722025640063616368656420BA
:1006400068756D69646974792076616C75652030B0
:10065000782530347820666F72202564006E6F64D0
:10066000655F646220616E642070656E64696E67A8
:100670005F73657373696F6E7320636F756E74203B
:100680006D69736D6174636821004E6F20737563CB
:100690006820636F6D6D616E6421003C3C300A0020
:1006A0003C3C300A004661696C656420746F2072BE
:1006B00065676973746572206D616E61676564203A
:1006C000736574003C3C300A003C3C300A003C3C02
:1006D000763A66643039363931663834393466648E
:1006E00035353630383331333334383330373432CC
:1006F000626435323961393235340A003C3C300AA3
:10070000003C3C300A003C3C300A007573652063B5
:10071000616368656420726573706F6E7365003C19
:100720003C300A003C3C300A0073657474696E67A3
:10073000206368616E6E656C20746F2025640063B1
:100740006F6D6D616E6420627566666572202573DB
:100750000072756E6E696E67207265762E20666413
:1007600030393639316638343934666435353630A7
:1007700038333133333438333037343262643532DE
:1007800039613932353420636F64650069276D2023
:1007900061206D6173746572004649464F20756E25
:1007A000646572666C6F773F2100496E636F6D7090
:1007B0006C657465207061636B657420617420746E
:1007C000696D656F7574206D61726B2100636331B3
:1007D0003130313A20436F727275707420706163EA
:1007E0006B65742061742074696D656F7574206D1C
:1007F00061726B212028435243206572726F722C04
:100800002073746174757320253034782900506129
:10081000636B6574206174207468652074696D650C
:100820006F7574206D61726B2100636331313031FB
:100830003A20436F7272757074207061636B6574D7
:100840002069676E6F726564202843524320657289
:10085000726F722C20737461747573202530347834
:1008600029006363313130313A2073707572696FDA
:10087000757320696E746572727570743F0063637E
:10088000313130313A20496E74657272757074205E
:100890007369676E616C6C656420666F7220696E47
:1008A000636F6D706C657465207061636B65740057
:1008B00011241FBECFEFD7E2DEBFCDBF11E2A4E10E
:1008C000B0E201C01D92AF3AB107E1F710E2A0E03B
:1008D000B0E2E0E9FAE202C005900D92A431B1075E
:1008E000D9F70E944B0B0C9446150C940000E1E2E2
:1008F000F0E220E030E097E0929FD001939FB00DAE
:100900001124A05EBF4D4C91442319F0408148173B
:1009100041F02F5F3F4F37962032310569F78FEF57
:100920000895822F0895FC0122812F3F11F080E06D
:100930000895FC0181810E94770487FDF8CF97E03C
:100940008902F0011124E05EFF4D8081813079F74A
:1009500092E09083909100219F5F909300210895F1
:1009600080911F208F5F8F3F19F080931F20089583
:1009700010921F2008958093E3088091E20887FF7A
:10098000FCCF8091E30808951F93CF93DF93C0E4D9
:10099000D6E010E11E8380680E94BB0480E00E94C4
:1009A000BB041D83DF91CF911F910895EF92FF92B9
:1009B0001F93CF93DF931F92CDB7DEB790E4E92E5C
:1009C00096E0F92E10E1F701168369830E94BB04BB
:1009D0006981862F0E94BB04F70115830F90DF9178
:1009E000CF911F91FF90EF900895CF93C82F80E192
:1009F000809346068C2F0E94BB04C03321F4809163
:100A0000480686FDFCCF80E180934506CF9108958E
:100A1000EF92FF920F931F93CF93DF93EC018BE73D
:100A20000E94C404882341F197EF980F973728F06C
:100A30008AE30E94F50482E022C080E180934606AA
:100A40008FEF0E94BB048E017E0189E0E80EF11C4D
:100A500080E00E94BB04F80181938F01EE15FF0531
:100A6000B9F780E1809345068AE30E94F504888502
:100A700087FF04C080E003C081E001C083E0DF9114
:100A8000CF911F910F91FF90EF900895E0E7F0E074
:100A90008381877F838381E58093E00808951F9297
:100AA0000F920FB60F9211242F933F934F935F93A2
:100AB0006F937F938F939F93AF93BF93EF93FF9326
:100AC00084E080930C060E94460584E190E20E9437
:100AD000080581110BC084E190E20E9493048823F1
:100AE00029F010921E201092090603C084E30E9490
:100AF000F50480917300886080937300FF91EF91FB
:100B0000BF91AF919F918F917F916F915F914F9125
:100B10003F912F910F900FBE0F901F9018958091CD
:100B2000C10987FFFCCF8091C00990E00895CF9361
:100B3000C82F8A3019F48DE00E9497058091C10971
:100B400085FFFCCFC093C0098C2F992787FD909516
:100B5000CF910895EF92FF920F931F93CF93DF935E
:100B6000CDB7DEB78E01075F1F4FF801E190F1901E
:100B70008F0186EB91E09F938F930E940D12A80145
:100B8000B7018091A9219091AA210E94331284EB90
:100B900091E09F938F930E940D128FE697E101974A
:100BA000F1F700C000000F900F900F900F90DF91B1
:100BB000CF911F910F91FF90EF900895992787FD96
:100BC00090958459910997FD0196959587959F93E6
:100BD0008F938DE092E09F938F930E94AA050F90D0
:100BE0000F900F900F900895F8940E94460586E3A9
:100BF0000E94F5048AE30E94F504109209061092FF
:100C00001E20E0E7F0E083818860838378948BEB9B
:100C100091E09F938F930E94AA050F900F900895E3
:100C2000EF92FF920F931F93CF93DF93CDB7DEB771
:100C30008E01075F1F4FF801E190F1908F018DEA5F
:100C400091E09F938F930E940D12A801B7018091AC
:100C5000A9219091AA210E94331284EB91E09F93E5
:100C60008F930E940D128FE697E10197F1F700C074
:100C700000000F900F900F900F90DF91CF911F9178
:100C80000F91FF90EF900895CF93DF930E94460558
:100C900081E30E94F50480E1809346068FE70E947D
:100CA000BB04C1E9D1E289910E94BB0481E2C83949
:100CB000D807C9F780E18093450685E30E94F504D3
:100CC00085E70E94C404813041F4809173008860FC
:100CD00080937300DF91CF910895863189F789E978
:100CE00097E09F938F930E9410068BE30E94F50478
:100CF0000F900F9085E70E94C4048130D9F7E5CFAB
:100D00004F925F926F927F928F929F92AF92BF921B
:100D1000CF92DF92EF92FF920F931F93CF93DF93C7
:100D2000CDB7DEB7A097CDBFDEBF6EE070E20E9408
:100D3000E1117C01892B99F1BE016F5F7F4F5B014F
:100D400010E06B014AE050E060E070E0C7010E94F3
:100D5000C8102B013C01E1E04E1A510861087108EE
:100D6000FFEF4F1651046104710428F0FF92EF92D7
:100D700087E394E0C6C0F50161935F016EE070E225
:100D800080E090E00E94E1117C01892BD9F11F5F86
:100D90001032C1F61F921F938FE094E0B2C001E2BF
:100DA00010E2E12CF12C27E0B22E38EDC32E33E017
:100DB000D32EBE9CF001BF9CF00D1124E05EFF4DD0
:100DC0008081882361F0F80180811F928F93DF92E8
:100DD000CF920E94AA050F900F900F900F90BE9C8B
:100DE000F001BF9CF00D1124E05EFF4D1082FFEF7B
:100DF000EF1AFF0A095F1F4F20E2E216F104C9F65D
:100E000081E088C081E2A82E80E2B82EE12CF12C8E
:100E100007E09EEF892E93E0992E0E9DF0010F9D25
:100E2000F00D1124E05EFF4D8081882311F1F50162
:100E3000908180E0F601E80FF11D2081921302C03D
:100E4000108203C08F5F1817A8F7181790F41F922D
:100E50009F939F928F920E94AA050E9DF0010F9D75
:100E6000F00D1124E05EFF4D10820F900F900F9057
:100E70000F90FFEFEF1AFF0A27E0A20EB11C60E20D
:100E8000E616F10451F600E0712C47E0642E59EEAD
:100E9000852E53E0952E55245394A02EB12CF601A7
:100EA000EA0DFB1D2081222341F1872D90E0689EF1
:100EB000A001699E500D1124FA01E05EFF4D7F01F3
:100EC0003081332311F07394F0CF9F937F921F9260
:100ED0002F939F928F920E94AA05F894F701508257
:100EE000F601EA0DFB1D8081F701818378940F9054
:100EF0000F900F900F900F900F900F5F101768F6E4
:100F00007FCF9F938F930E9410060F900F900F90AA
:100F10000F9080E0A096CDBFDEBFDF91CF911F91F3
:100F20000F91FF90EF90DF90CF90BF90AF909F9088
:100F30008F907F906F905F904F9008951F93CF9305
:100F4000DF931F92CDB7DEB70E94460585E70E946A
:100F5000C404813061F0F0F09AEF980F9A30D0F429
:100F60008091730088608093730081E03BC0109291
:100F70001E201FB77894809173008860809373005F
:100F800084EF91E09F938F930E9410061FBF0F90F4
:100F90000F9027C01FB778941F928F932EEC31E0EB
:100FA0003F932F9389830E94AA050F900F900F9073
:100FB0000F908981863111F48BE303C0813119F4DC
:100FC0008AE30E94F50486E30E94F50485E70E9407
:100FD000C4048130D9F780917300886080937300D6
:100FE0001FBF82E00F90DF91CF911F910895EF9284
:100FF000FF920F931F93CF93DF93CDB7DEB78E0190
:10100000075F1F4FF801E190F1908F0188EA91E0AE
:101010009F938F930E940D12A801B7018091A9217F
:101020009091AA210E94331284EB91E09F938F93B9
:101030000E940D128FE697E10197F1F700C00000C2
:101040000F900F900F900F90DF91CF911F910F9104
:10105000FF90EF900895CF92DF92EF92FF920F935F
:101060001F93CF93DF93EC0180910008811107C09B
:1010700091E0209709F490E0092F182F02C001E0B9
:1010800010E00E94460584E080930C06FF24F39450
:10109000F092090684E30E94F504209711F18091F3
:1010A00073008E7F80937300F0920608F89410927C
:1010B00098211092992110929A2110929B218827B1
:1010C00099278C1B9D0B809320089093210878947E
:1010D0008FEF9FEF809326089093270887E08093F7
:1010E000000884E0C82EDD24D3949AE2E92E98E02B
:1010F000F92EF89480910906882359F001151105FD
:1011000021F0809100088823B1F17894889500003F
:10111000F0CF78948CE991E20E940805813021F1AA
:1011200008F45FC08230C1F0833029F5C0920C060C
:10113000D092090684E30E94F5048091A4218F9344
:101140008091A3218F93FF92EF920E94F7070F9057
:101150000F900F900F90CDCF8EE798E09F938F93D5
:101160000E9410060F900F9082E698E09F938F9355
:101170000E94100633C0789486E30E94F50485E748
:101180000E94C4048130D9F78CE991E20E940805DD
:101190008230F1F0833059F0811125C08EE098E063
:1011A0009F938F930E94F7070F900F901AC0809122
:1011B000A4218F938091A3218F938DEC97E09F932F
:1011C0008F930E94F7070F900F900F900F900BC016
:1011D0008AEA97E09F938F930E94F7070F900F90F2
:1011E00002C081E001C080E090917300986090930C
:1011F000730010920906CD2B39F0109200089091DF
:101200007300916090937300DF91CF911F910F91C4
:10121000FF90EF90DF90CF90089590919C219923BB
:10122000F1F08DED92E09F938F930E94AA050F90AD
:101230000F9080919D2181116AC081EB92E09F9374
:101240008F930E94AA052FE788E391E02150804008
:101250009040E1F700C000000F900F9058C09091AF
:101260009E219F3FF1F48CE991E20E9493049091BA
:101270009D21813049F41F929F9384E992E09F93CE
:101280008F930E94F70708C01F929F9388E792E010
:101290009F938F930E94AA050F900F900F900F902D
:1012A00036C020919D21821789F01F922F931F92A3
:1012B0008F9384E492E09F938F930E94AA050F90EE
:1012C0000F900F900F900F900F9021C020911F2032
:1012D000621720F481E0961738F003C0961718F4CF
:1012E00081E0921708F480E0817099F01F929F933B
:1012F0001F922F931F926F9388E192E09F938F9399
:101300000E94AA058DB79EB708968DBF9EBF80E04C
:10131000089581E008959F92AF92BF92CF92DF929D
:10132000EF92FF920F931F93CF93DF93082F162F07
:101330007A0190901F20C62ED12C1F928F931F925E
:101340006F938FEB93E09F938F930E94AA050F906A
:101350000F900F900F900F900F90C0E0D0E08CE7AF
:10136000A82E83E0B82E80911F2010929221009326
:1013700091218093932110929421109395210E94A2
:10138000B0040E94440685E39CE00E942B08882359
:10139000F1F1692D802F0E940D098823C1F1809100
:1013A000A021181779F01F928F93DF92CF92BF92EE
:1013B000AF920E94AA050F900F900F900F900F9080
:1013C0000F9025C08091A4218F938091A3218F93AA
:1013D000DF93CF9384E593E09F938F930E94AA05B8
:1013E0008091A3210E94DE058091A1219091A221EC
:1013F000F7018083918381E00F900F900F900F9001
:101400000F900F9090919F21992351F008C0219641
:10141000C431D10509F0A7CFF7011082118280E015
:10142000DF91CF911F910F91FF90EF90DF90CF90C0
:10143000BF90AF909F900895CF92DF92EF92FF926E
:101440000F931F93CF93DF93E82EC62FD0901F20CA
:101450001F928F9381E493E09F938F930E940D12CC
:101460000F900F900F900F9000E010E0D0E08DEF04
:10147000C82E0C171D07B8F580911F2010929221DD
:10148000E092912180939321C09294210E94B00414
:101490000E9444068BE196E00E942B08882301F10C
:1014A0006D2D8E2D0E940D09F82E8823C9F0809194
:1014B000A4218F938091A3218F931F930F938AE18F
:1014C00093E09F938F930E940D128091A3210E941D
:1014D000DE050F900F900F900F900F900F9010C09F
:1014E0000F5F1F4FC6CFDF93CF9380E093E09F93B2
:1014F0008F930E940D120F900F900F900F90F12C70
:101500008F2DDF91CF911F910F91FF90EF90DF9082
:10151000CF9008951F920F920FB60F9211242F9320
:101520003F934F938F939F93EF93FF9380919021DD
:10153000811142C080918F2181111FC04091C0094B
:101540004E33B1F480918D2190918E219C012F5FBB
:101550003F4F20938D2130938E21FC01EF5FFE4D94
:1015600040832230310541F581E080938F2124C0F2
:1015700010928D2110928E211FC080918D2190910B
:101580008E212091C009FC01EF5FFE4D20832A309F
:1015900059F4118210928D2110928E2181E0809356
:1015A000902110928F2108C08B38910528F4019664
:1015B00080938D2190938E21FF91EF919F918F9138
:1015C0004F913F912F910F900FBE0F901F90189544
:1015D0000F920FB60F922F9320911E20222331F0ED
:1015E0002F910F900FBE0F900C944F052227209340
:1015F00009062F910F900FBE0F9018951F920F9212
:101600000FB60F9211244F935F936F937F938F9335
:101610009F93AF93BF938091982190919921A0912E
:101620009A21B0919B210097A105B10511F1AC0160
:10163000BD0144275527452B462B472B51F01197C9
:101640008093982190939921A0939A21B0939B2104
:1016500012C091958195910980932008909321085B
:10166000109298211092992110929A2110929B2108
:1016700002C01092000881E080930C08BF91AF91E6
:101680009F918F917F916F915F914F910F900FBEBE
:101690000F901F901895CF93DF93CDB7DEB72697A5
:1016A000CDBFDEBF1B821C82809150008062809380
:1016B00050008091510085FFFCCF25E030E088ED9F
:1016C00090E084BF20934000809150008E7F8093F3
:1016D000500087E88093700087E0809371008FE569
:1016E0008093730082E08093740088E080936106A9
:1016F0008093650681EA8093C7098CEE8093C609C2
:1017000083E08093C4091092C2091092C50988E150
:101710008093C30910E11093C20981E08093A20075
:101720008093480080E090E28093A7219093A821C5
:101730008093A9219093AA21109341061093450606
:1017400084E08093020680EA809341062FEF30E721
:1017500082E0215030408040E1F700C000000E944C
:101760004605109346069FEFA0E7B2E09150A040D7
:10177000B040E1F700C000008091480686FDFCCF34
:1017800010E11093450680E30E94F50480E70E9473
:10179000C404082F81E70E94C4041F928F931F92F4
:1017A0000F9388E594E09F938F930E94F70764E07E
:1017B00088E00E94D60464E087E00E94D60467E0D7
:1017C00086E00E94D60462EA83E10E94D60466E0C5
:1017D0008BE00E94D60460E18DE00E94D60461EBAC
:1017E0008EE00E94D60466E48FE00E94D60466EF85
:1017F00080E10E94D60463E881E10E94D60463E19F
:1018000082E10E94D60465E185E10E94D60468E188
:1018100088E10E94D60466E189E10E94D6046BEF5C
:1018200080E20E94D60469EE83E20E94D6046AE256
:1018300084E20E94D60460E085E20E94D6046FE153
:1018400086E20E94D60461E88CE20E94D60465E339
:101850008DE20E94D60469E08EE20E94D60461E027
:1018600082E00E94D60461E483E00E94D6041093D3
:1018700046068EE70E94BB0401E514E00F900F902E
:101880000F900F900F900F90F80184910E94BB046D
:101890000F5F1F4FF4E008351F07B1F780E1809319
:1018A00045068091730088608093730084E0809384
:1018B0000A0691E09093120680930C0678948CE8C7
:1018C00097E09F938F930E94F70781E597E09F939E
:1018D0008F930E94F7070F900F900F900F9010E0DA
:1018E00001E09FE3292E97E0392E2BE9422E26E0D6
:1018F000522E33E4A32E35E0B32EF89480910021CC
:10190000811130C08091902181112CC080911E20C6
:10191000882351F00E949E07882331F0823071F3B2
:10192000789488950000E9CFF8940E94460521E05C
:1019300020931E2034E030930C060093090684E3C4
:101940000E94F504809173008860809373007894FE
:10195000A6E7B4E0BF93AF930E94AA05F8940F9056
:101960000F90CCCF80919021882309F4FCC2789409
:10197000A1E0B1E2BF93AF933F922F920E94F7078D
:101980000F900F900F900F90E09103218E2F9927C9
:1019900087FD9095A92FB92FFC01E356F109E83195
:1019A000F10508F0D0C2E454FF4F0C94401561E1FA
:1019B00070E281E091E20E94E11161E170E280E079
:1019C00090E00E94E11140E150E060E070E00E9490
:1019D000C8101F926F9389E297E09F938F936E8355
:1019E0000E94AA051092902184E297E09F938F9322
:1019F0000E940D120E94F4050E9446056E818AE045
:101A00000E94D6040F900F900F900F900F900F90A0
:101A1000AAC261E170E281E091E20E94E11161E11C
:101A200070E280E090E00E94E1116C0161E170E2FF
:101A300080E090E00E94E1117C0140E150E060E034
:101A400070E0C6010E94C810D62E40E150E060E070
:101A500070E0C7010E94C810109290218FE197E0BA
:101A60009F938F936E830E940D128D2D0E94770499
:101A70000F900F9087FF09C00E94F4056E818D2D95
:101A80000E941C0A8823C9F013C02BE037E03F9363
:101A90002F938E830E94AA058E8127E08202F00197
:101AA0001124E05EFF4D80810F900F90813029F06E
:101AB0001F92DF9288EA95E0BCC11F92DF9284E911
:101AC00094E0B7C161E170E281E091E20E94E1112E
:101AD00061E170E280E090E00E94E1116C0161E15F
:101AE00070E280E090E00E94E1117C0140E150E072
:101AF00060E070E0C6010E94C810962E40E150E000
:101B000060E070E0C7010E94C810862E10929021FC
:101B100086E097E09F938F930E940D12892D0E947B
:101B200077040F900F9087FF13C00E94F405AE0159
:101B30004D5F5F4F682D892D0E948B092C819B8101
:101B4000882319F02F939F930BC32F939F931BC34D
:101B5000C82CD12CB7E08B0270011124F701E05E94
:101B6000FF4D3F0181811F928F931F928F9286EBD1
:101B700094E09F938F930E94AA05F894D3018C91CF
:101B80000F900F900F900F900F900F90833049F5AA
:101B9000F6013196EE0FFF1FEE0DFF1DE05EFF4DCB
:101BA000808191818B839C8381E090E0082C01C02F
:101BB000880F0A94EAF716969C911697892B169629
:101BC0008C9316978370833009F40C9378948B81EF
:101BD0009C818F3FBFEF9B0709F4D1C29F938F93E6
:101BE000BFC27894F30181811F928F9380EA94E0C1
:101BF0009F938F930E94AA050F900F900F900F90C4
:101C0000BEC261E170E281E091E20E94E11161E116
:101C100070E280E090E00E94E1113C0161E170E23D
:101C200080E090E00E94E1114C0161E170E280E00F
:101C300090E00E94E1117C0140E150E060E070E042
:101C4000C3010E94C810D62E40E150E060E070E071
:101C5000C4010E94C810C62E40E150E060E070E070
:101C6000C7010E94C81077276B837C831092902154
:101C700081E097E09F938F930E940D120E94F405DC
:101C80006B807C8020911F202D838C2C912C1F92A7
:101C9000DF921F92CF9286E895E09F938F930E94E8
:101CA000AA05CDBFDEBFE12CF12C80911F20109240
:101CB0009221D09291218093932191E0909394214D
:101CC000C092952160929621709297210E94B00453
:101CD0000E9444068BE196E00E942B08882309F4B9
:101CE00040C06D818D2D0E940D098823D1F1809116
:101CF000A021C81679F01F928F939F928F92BF9266
:101D0000AF920E94AA050F900F900F900F900F9026
:101D10000F9027C08091A4218F938091A3218F934E
:101D2000FF92EF928BE195E09F938F930E94AA051B
:101D30008091A3210E94DE058091A2218F93809142
:101D4000A1218F938091A0211F928F931F921F92A8
:101D500080919D211F928F9389EF94E09F938F93A1
:101D600009C2BFEFEB1AFB0AE4E1EE16F10409F039
:101D70009CCF1F921F921F92CF921F920F931F9280
:101D8000DF9289EF94E0F4C1109290218CEF96E0FD
:101D90009F938F930E940D128EEC96E09F938F93EA
:101DA0000E940D12DCC061E170E281E091E20E94CC
:101DB000E11161E170E280E090E00E94E11140E118
:101DC00050E060E070E00E94C810F62E1092902162
:101DD00089EC96E09F938F930E940D128F2D0E94A5
:101DE00077040F900F9087FF12C00E94F4050E94A5
:101DF000B00480911F2010929221F0929121809343
:101E000093218BEF809394210E9444060EC08F2D66
:101E10000E94770487FD09C0F89427E08202F00150
:101E20001124E05EFF4D008378941F92FF928CE9AD
:101E300095E09F938F930E940D1291C01092902174
:101E400084EC96E09F938F930E940D1280911D2049
:101E500020E2280F0F900F9037E0803218F090EEBC
:101E6000980F01C0982F399FF0011124E05EFF4DBB
:101E70004081433099F49F5F90931D208181882396
:101E800081F01F928F9388EA95E09F938F930E9431
:101E90000D120F900F900F900F9003C08F5F821361
:101EA000DCCF84EB95E048C0809104218A3379F43B
:101EB000809105218A3359F480E190E20E948006E6
:101EC00040E150E060E070E086E091E229C061E12D
:101ED00070E281E091E20E94E11161E170E280E054
:101EE00090E00E94E1116C0161E170E280E090E01D
:101EF0000E94E1117C01C6010E948006811108C088
:101F000085EA96E09F938F930E9410060F900F90A2
:101F1000E114F10461F040E150E060E070E0C701DD
:101F20000E94C81011E0672B682B692B09F410E0A0
:101F30001092902180EA96E09F938F930E940D1259
:101F40000F900F9010C0109290215F924F920E94BC
:101F50000D128AE896E09F938F930E9410060F90CF
:101F60000F900F900F90F89480910021882309F42E
:101F7000C4CC812C912C87E0889DF001899DF00DC7
:101F80001124E05EFF4D9081923009F0D4C0809121
:101F90001E20882331F00E949E07813011F40E9498
:101FA000F4057894111116C027E0289DC001299DE1
:101FB000900D1124DC01A05EBF4D7D01AE014F5F8D
:101FC0005F4F61E011968C910E948B09882309F480
:101FD00082C00FC087E0889DF001899DF00D11241B
:101FE000E05EFF4D64E081810E941C0A8111DCCF1C
:101FF00072C089819A81F7018483958321811F9220
:102000002F939F938F9389E396E09F938F930E94E2
:10201000AA05AE014F5F5F4F60E0D70111968C912A
:102020000E948B090F900F900F900F900F900F90C0
:10203000F7013296882309F464C089819A81D70117
:1020400012968C931297918311962C911F922F9335
:102050009F938F9382E196E09F938F930E94AA05AE
:1020600083E0F701808316820F900F900F900F90FE
:102070000F900F90111113C0F1800E94B004809155
:102080001F2010929221F0929121809393218BEF47
:10209000809394210E94440689EC95E002C08DED66
:1020A00095E09F938F9387E0889DF001899DF00DC7
:1020B0001124E05EFF4D81811F928F9381E096E0B5
:1020C0009F938F930E94F7070F900F900F900F90A0
:1020D0000F900F9029C081EC95E09F938F930E9401
:1020E000100687E0889DF001899DF00D1124E05EC7
:1020F000FF4D8FEF9FEF84839583828393830083CB
:1021000011C089EB95E09F938F930E9410068FEF8B
:102110009FEFD70112968D939C93139783E08C9336
:1021200016961C920F900F90F89480910021815088
:102130008093002113C0BFEF8B1A9B0AE0E28E163A
:10214000910409F019CF1092002178948DE596E062
:102150009F938F930E9410060F900F907894CDCB91
:102160001F928F921F921F921F929F9287ED94E071
:102170009F938F930E940D12CDBFDEBFF4CE8C8152
:102180008F938B818F931F928F921F920F93ECCF1F
:10219000A0E0B0E0EEECF0E10C94F5145C016B0112
:1021A0007A016115710519F0FB0180839183E114B7
:1021B000F10429F0C7010297839708F0F1C0E50107
:1021C0002196F5011081812F90E00E94D911892B71
:1021D00011F05E01F4CF1D3229F42196F501118131
:1021E00001E007C01B3221F4E5012296F5011181BF
:1021F00000E0E114F10459F1F0E1EF16F10461F4AB
:102200001033E1F488818F7D883569F51981229634
:10221000026070E1E72EF12C88E0E816F10439F154
:102220002CF4F2E0EF16F104C9F12AC08AE0E816B6
:10223000F10479F0E0E1EE16F10411F550E1E52E3C
:10224000F12C812C912CA12C68E0B62E2CC01033DF
:10225000C9F23AE0E32EF12C4CEC842E982CA82CF9
:102260004CE0B42E20C010E3E114F104A9F698E08C
:10227000E92EF12C812C912CA12C20E1B22E13C03F
:1022800060E070E080E090E89701442737FD4095DA
:10229000542F0E94D31449015A0105C0812C912C5E
:1022A000A12C80E4B82E60E020E030E0A9012701F5
:1022B000662457FC6094762C1E01E0EDE10FEA30B5
:1022C00060F08FEB810F8A3110F4E9EC05C08FE9E3
:1022D000810F8A3128F5E9EAE10F8E2F90E08E1503
:1022E0009F05F4F467FD18C082169306A406B50690
:1022F00090F0C301B2010E94C3149B01AC012E0FE8
:10230000311D411D511D213031054105F0E85F07A8
:1023100010F461E001C06FEF2196F1011081CCCF84
:10232000802F8170C114D10471F0662329F02197A8
:10233000F601C083D18307C001FF19C02297F601BF
:10234000C083D18314C067FF12C0811105C02FEF75
:102350003FEF4FEF5FE704C020E030E040E050E89F
:1023600082E290E08093AD219093AE2116C0882345
:1023700041F050954095309521953F4F4F4F5F4F1D
:102380000CC057FF0AC082E290E08093AD21909389
:10239000AE212FEF3FEF4FEF5FE7B901CA0104C055
:1023A00060E070E080E090E0CDB7DEB7E2E10C9451
:1023B0000E15911139C2803219F089508550D0F72D
:1023C000089545EA51E20E94E6110895FA01A191AB
:1023D000B081009719F41097E1F0CD01DC01CD0137
:1023E0000D90002011F4C00113C0FB0121912223A4
:1023F00019F02015D9F7F3CFFB012191201519F41D
:102400001E92119606C02223C1F70D900020A1F75D
:10241000D001FA01A193B0830895A0E0B0E0E3E118
:10242000F2E10C940315AE01495F5F4FDA016D9143
:102430007D91AD0107EA11E2F80182819381DC010F
:1024400013962C911397286013962C930E94421296
:10245000D8011296ED91FC9113972381277F238356
:10246000E4E00C941C15CF93DF93EC018B81886022
:102470008B83CE010E9442122B81277F2B83DF9119
:10248000CF910895ACE0B0E0E8E4F2E10C94F514EB
:102490007C016B018A01FC0116821782838181FF16
:1024A000BDC1CE0101964C01F7019381F60193FD68
:1024B000859193FF81916F01882309F4ABC1853227
:1024C00039F493FD859193FF81916F01853229F451
:1024D000B70190E00E942D14E7CF512C312C20E061
:1024E0002032A0F48B3269F030F4803259F083321C
:1024F00069F420612CC08D3239F0803339F42160C9
:1025000026C02260246023C0286021C027FD27C088
:1025100030ED380F3A3078F426FF06C0FAE05F9EBF
:10252000300D1124532E13C08AE0389E300D112433
:10253000332E20620CC08E3221F426FD6BC1206444
:1025400006C08C3611F4206802C0883641F4F601CA
:1025500093FD859193FF81916F018111C1CF982FD8
:102560009F7D9554933028F40C5F1F4FFFE3F98350
:102570000DC0833631F0833771F0833509F05BC0CD
:1025800022C0F801808189830E5F1F4F4424439449
:10259000512C540115C03801F2E06F0E711CF80186
:1025A000A080B18026FF03C0652D70E002C06FEFF0
:1025B0007FEFC5012C870E9422142C0183012C85FA
:1025C0002F77222E17C03801F2E06F0E711CF80130
:1025D000A080B18026FF03C0652D70E002C06FEFC0
:1025E0007FEFC5012C870E9417142C012C852068D1
:1025F000222E830123FC1BC0832D90E04816590630
:10260000B0F4B70180E290E00E942D143A94F4CF28
:10261000F50127FC859127FE81915F01B70190E0CC
:102620000E942D1431103A94F1E04F1A51084114D0
:10263000510471F7E5C0843611F0893639F5F80197
:1026400027FF07C060817181828193810C5F1F4FDA
:1026500008C060817181882777FD8095982F0E5F73
:102660001F4F2F76722E97FF09C090958095709519
:1026700061957F4F8F4F9F4F2068722E2AE030E088
:10268000A4010E946514A82EA81844C0853729F417
:102690002F7EB22E2AE030E025C0F22FF97FBF2E28
:1026A0008F36C1F018F4883579F0B4C0803719F04E
:1026B000883721F0AFC02F2F2061B22EB4FE0DC09D
:1026C0008B2D8460B82E09C024FF0AC09F2F96600E
:1026D000B92E06C028E030E005C020E130E002C09D
:1026E00020E132E0F801B7FE07C06081718182818C
:1026F00093810C5F1F4F06C06081718180E090E084
:102700000E5F1F4FA4010E946514A82EA818FB2D70
:10271000FF777F2E76FE0BC0372D3E7FA51450F439
:1027200074FE0AC072FC08C0372D3E7E05C0BA2C6C
:10273000372D03C0BA2C01C0B52C34FF0DC0FE01EB
:10274000EA0DF11D8081803311F4397E09C032FF1A
:1027500006C0B394B39404C0832F867809F0B39471
:1027600033FD13C030FF06C05A2CB31418F4530CB9
:102770005B18B32CB31468F4B70180E290E03C8797
:102780000E942D14B3943C85F5CFB31410F43B187C
:1027900001C0312C34FF12C0B70180E390E03C87C8
:1027A0000E942D143C8532FF17C031FD03C088E71D
:1027B00090E002C088E590E0B7010CC0832F8678D6
:1027C00059F031FF02C08BE201C080E237FD8DE29B
:1027D000B70190E00E942D14A51438F4B70180E3EE
:1027E00090E00E942D145A94F7CFAA94F401EA0DB8
:1027F000F11D8081B70190E00E942D14A110F5CF4A
:10280000332009F451CEB70180E290E00E942D14EC
:102810003A94F6CFF7018681978102C08FEF9FEF40
:102820002C96E2E10C940E15992788270895FC0157
:102830000590615070400110D8F7809590958E0FEB
:102840009F1F0895FC016150704001900110D8F75E
:10285000809590958E0F9F1F08950F931F93CF9390
:10286000DF93FB01238121FD03C08FEF9FEF28C081
:1028700022FF16C0468157812481358142175307B4
:1028800044F4A081B1819D012F5F3F4F20833183AC
:102890008C93268137812F5F3F4F2683378310C06B
:1028A000EB01092F182F0084F185E02D0995892B64
:1028B000E1F68E819F8101968E839F83812F902FD9
:1028C000DF91CF911F910F910895FA01AA27283027
:1028D00051F1203181F1E8946F936E7F6E5F7F4FED
:1028E0008F4F9F4FAF4FB1E03ED0B4E03CD0670F69
:1028F000781F891F9A1FA11D680F791F8A1F911DBC
:10290000A11D6A0F711D811D911DA11D20D009F40B
:1029100068943F912AE0269F11243019305D31934D
:10292000DEF6CF010895462F4770405D4193B3E036
:102930000FD0C9F7F6CF462F4F70405D4A3318F0DD
:10294000495D31FD4052419302D0A9F7EACFB4E08E
:10295000A6959795879577956795BA95C9F7009746
:102960006105710508959B01AC010A2E06945795E7
:10297000479537952795BA95C9F7620F731F841F3E
:10298000951FA01D0895DB018F939F930E9426152C
:10299000BF91AF91A29F800D911DA39F900DB29FFB
:1029A000900D11240895A1E21A2EAA1BBB1BFD0154
:1029B0000DC0AA1FBB1FEE1FFF1FA217B307E4071E
:1029C000F50720F0A21BB30BE40BF50B661F771F76
:1029D000881F991F1A9469F7609570958095909556
:1029E0009B01AC01BD01CF0108952F923F924F9200
:1029F0005F926F927F928F929F92AF92BF92CF928F
:102A0000DF92EF92FF920F931F93CF93DF93CDB797
:102A1000DEB7CA1BDB0BCDBFDEBF09942A8839881D
:102A200048885F846E847D848C849B84AA84B98466
:102A3000C884DF80EE80FD800C811B81AA81B98172
:102A4000CE0FD11DCDBFDEBFED0108950E9431151F
:102A5000A59F900DB49F900DA49F800D911D1124F2
:102A60000895A29FB001B39FC001A39F700D811D67
:102A70001124911DB29F700D811D1124911D089587
:102A8000EE0FFF1F0590F491E02D0994F894FFCF0D
:102A9000000000030000000097058F0500002C0ACD
:042AA000003A0A00EE
:00000001FF
