:100000000C94D8010C94F5010C94F5010C94F501B5
:100010000C94F5010C94F5010C94F5010C94F50188
:100020000C94F5010C94F5010C94F5010C94F50178
:100030000C9462040C94F5010C94F5010C94F501F8
:100040000C94F5010C94F5010C94F5010C94F50158
:100050000C94F5010C94F5010C94F5010C94F50148
:100060000C94F5010C94F5010C94F5010C94F50138
:100070000C94F5010C94F5010C944C040C94F501CE
:100080000C94F5010C94F5010C94F5010C94F50118
:100090000C9438040C94F5010C9408040C94B803E7
:1000A0000C94F5010C94F5010C94F5010C94F501F8
:1000B0000C94F5010C94F5010C94F5010C94F501E8
:1000C0000C94F5010C94F5010C94F5010C94F501D8
:1000D0000C94F5010C94F5010C94F5010C94F501C8
:1000E0000C94F5010C94F5010C94F5010C94F501B8
:1000F0000C94F5010C94F5010C94F5010C94F501A8
:100100000C94F5010C94F5010C94F5010C94F50197
:100110000C94F5010C94F5010C94F5010C94F50187
:100120000C94F5010C94F5010C94F5010C94F50177
:100130000C94F5010C94F5010C94F5010C94F50167
:100140000C94F5010C94F5010C94F5010C94F50157
:100150000C94F5010C94F5010C94F5010C94F50147
:100160000C94F5010C94F5010C94F5010C94F50137
:100170000C94F5010C94F501234923090023455201
:10018000522309000A002356230900C00000000082
:1001900000006363313130313A20706172746E75E2
:1001A0006D2025782076657273696F6E2025780042
:1001B000496E636F6D706C657465207061636B650B
:1001C000742061742074696D656F7574206D61723F
:1001D0006B21006363313130313A20436F727275A5
:1001E0007074207061636B65742061742074696D34
:1001F000656F7574206D61726B2120284352432016
:100200006572726F722C207374617475732025305F
:10021000347829005061636B6574206174207468C0
:10022000652074696D656F7574206D61726B210056
:100230006363313130313A20436F727275707420CC
:100240007061636B65742069676E6F7265642028E6
:10025000435243206572726F722C207374617475FF
:1002600073202530347829006363313130313A20EE
:1002700073707572696F757320696E7465727275CB
:1002800070743F006363313130313A20496E7465D8
:100290007272757074207369676E616C6C6564202E
:1002A000666F7220696E636F6D706C657465207027
:1002B00061636B65740051AFF11AADD95B4417BE31
:1002C0001109C4D43D404398E152556E6B6E6F776F
:1002D0006E20726567697374657200676574207259
:1002E00065673A20256400556E6B6E6F776E2072DD
:1002F0006567697374657200736574207265673A27
:100300002025643A256400756E6B6E6F776E2070E1
:1003100061636B657420747970652025780070695D
:100320006E67006D79206368616E6E656C2069731D
:10033000202564006D79206164647265737320699F
:10034000732030782578006D792074797065206984
:100350007320307825780072756E6E696E67207232
:1003600065762E20616635313161663164396164AC
:100370003434356262653137303931316434633455
:1003800034303364393834333532653120636F6447
:10039000650069276D206120736C617665004649B0
:1003A000464F20756E646572666C6F773F21000062
:1003B00011241FBECFEFD7E2DEBFCDBF10E2A0E118
:1003C000B0E201C01D92AA34B107E1F710E2A0E04B
:1003D000B0E2E4EBF7E102C005900D92A031B10765
:1003E000D9F70E94AF040C94D80B0C9400008093B2
:1003F000E3088091E20887FFFCCF8091E30808952D
:100400001F93CF93DF93C0E4D6E010E11E83806892
:100410000E94F70180E00E94F7011D83DF91CF91D8
:100420001F910895EF92FF921F93CF93DF931F9236
:10043000CDB7DEB790E4E92E96E0F92E10E1F70192
:10044000168369830E94F7016981862F0E94F70154
:10045000F70115830F90DF91CF911F91FF90EF90DF
:100460000895CF93C82F80E1809346068C2F0E9479
:10047000F701C03321F48091480686FDFCCF80E16E
:1004800080934506CF910895EF92FF920F931F93AB
:10049000CF93DF93EC018BE70E940002882341F1A8
:1004A00097EF980F973728F08AE30E94310282E095
:1004B00022C080E1809346068FEF0E94F7018E01F3
:1004C0007E0189E0E80EF11C80E00E94F701F8014E
:1004D00081938F01EE15FF05B9F780E18093450602
:1004E0008AE30E943102888587FF04C080E003C050
:1004F00081E001C083E0DF91CF911F910F91FF90C8
:10050000EF900895E0E7F0E08381877F838381E5C2
:100510008093E00808951F920F920FB60F92112456
:100520002F933F934F935F936F937F938F939F93FB
:10053000AF93BF93EF93FF9384E080930C060E94E8
:10054000820280E190E20E944402811105C0109273
:1005500019201092090603C084E30E9431028091A1
:100560007300886080937300FF91EF91BF91AF910A
:100570009F918F917F916F915F914F913F912F91BB
:100580000F900FBE0F901F9018958091C10987FFA3
:10059000FCCF8091C00990E00895CF93C82F8A3096
:1005A00019F48DE00E94CD028091C10985FFFCCF36
:1005B000C093C0098C2F992787FD9095CF910895FE
:1005C000EF92FF920F931F93CF93DF93CDB7DEB7D8
:1005D0008E01075F1F4FF801E190F1908F0186E8CF
:1005E00091E09F938F930E94D208A801B701809158
:1005F0004620909147200E94F80884E891E09F935C
:100600008F930E94D2088FE697E10197F1F700C01F
:1006100000000F900F900F900F90DF91CF911F91DE
:100620000F91FF90EF900895EF92FF920F931F9319
:10063000CF93DF93CDB7DEB78E01075F1F4FF80171
:10064000E190F1908F018DE791E09F938F930E944D
:10065000D208A801B70180914620909147200E94BE
:10066000F80884E891E09F938F930E94D2088FE668
:1006700097E10197F1F700C000000F900F900F90E5
:100680000F90DF91CF911F910F91FF90EF90089500
:10069000CF93DF930E94820281E30E94310280E1C6
:1006A000809346068FE70E94F701CDE3D0E289915F
:1006B0000E94F70180E2C434D807C9F780E1809333
:1006C000450685E30E94310285E70E9400028130E1
:1006D00041F480917300886080937300DF91CF9123
:1006E0000895863189F78EE993E09F938F930E9456
:1006F00014038BE30E9431020F900F9085E70E9454
:1007000000028130D9F7E5CFEF92FF920F931F934C
:10071000CF93DF93CDB7DEB78E01075F1F4FF80190
:10072000E190F1908F0188E791E09F938F930E9471
:10073000D208A801B70180914620909147200E94DD
:10074000F80884E891E09F938F930E94D2088FE687
:1007500097E10197F1F700C000000F900F900F9004
:100760000F90DF91CF911F910F91FF90EF9008951F
:100770001F920F920FB60F9211242F938F939F9376
:10078000AF93BF9380916A0990916B0920E2209307
:100790004C0920913C2021112FC0855C91098D3D91
:1007A000964050F580913B20882379F08091382045
:1007B00090913920A0913A20B0E08093342090931A
:1007C0003520A0933620B093372081E080933B20E2
:1007D0008091302090913120A0913220B09133202F
:1007E0000196A11DB11D8093302090933120A093DC
:1007F0003220B093332002C010923B20BF91AF91C2
:100800009F918F912F910F900FBE0F901F90189571
:100810001F920F920FB60F9211242F938F939F93D5
:10082000AF9380E180934C0980913B20882379F03D
:1008300020913C208091680990916909A0E0A22B49
:100840008093382090933920A0933A2006C01092CC
:1008500038201092392010923A2010923C20AF910B
:100860009F918F912F910F900FBE0F901F90189511
:100870001F920F920FB60F9211248F9381E08093F5
:100880004C0980913C208F5F80933C208F910F908A
:100890000FBE0F901F9018950F920FB60F922F93C7
:1008A00020911920222331F02F910F900FBE0F902D
:1008B0000C948B022227209309062F910F900FBED4
:1008C0000F9018951F920F920FB60F9211244F930D
:1008D0005F936F937F938F939F93AF93BF93809119
:1008E0001A2090911B20A0911C20B0911D200097F0
:1008F000A105B10511F1AC01BD0144275527452BD8
:10090000462B472B51F0119780931A2090931B2070
:10091000A0931C20B0931D2012C091958195910940
:10092000809320089093210810921A2010921B2087
:1009300010921C2010921D2002C01092000881E02D
:1009400080930C08BF91AF919F918F917F916F9190
:100950005F914F910F900FBE0F901F901895CF93FE
:10096000DF9300D01F92CDB7DEB787E88093700089
:1009700087E0809371008FE58093730082E180931C
:1009800074008091500080628093500080915100EB
:1009900085FFFCCF25E030E088ED90E084BF209318
:1009A0004000809150008E7F8093500080917400B1
:1009B0008F7E8093740088E0809361068093650643
:1009C00081EA8093C7098CEE8093C60983E0809307
:1009D000C4091092C2091092C50988E18093C30925
:1009E00081E08093A2008093480022E030E22093CF
:1009F000442030934520209346203093472093E5B0
:100A00009093650690936106909170009D7F9093FE
:100A10007000909174009D7F909374009DE6909378
:100A200080019AE09093440998EC9093430997E0F1
:100A30009093400995E0909347098093460910E10F
:100A4000109341061093450684E08093020680EAE5
:100A5000809341062FEF40E782E0215040408040E4
:100A6000E1F700C000000E948202109346069FEF4B
:100A7000A0E7B2E09150A040B040E1F700C0000014
:100A80008091480686FDFCCF00E10093450680E397
:100A90000E94310280E70E940002182F81E70E9425
:100AA00000021F928F931F921F9382E991E09F9300
:100AB0008F930E94840364E088E00E94120264E045
:100AC00087E00E94120267E086E00E94120262EA5A
:100AD00083E10E94120266E08BE00E94120260E154
:100AE0008DE00E94120261EB8EE00E94120266E429
:100AF0008FE00E94120266EF80E10E94120263E81A
:100B000081E10E94120263E182E10E94120265E12A
:100B100085E10E94120268E188E10E94120266E10A
:100B200089E10E9412026BEF80E20E94120269EEDC
:100B300083E20E9412026AE284E20E94120260E0F2
:100B400085E20E9412026FE186E20E94120261E8D1
:100B50008CE20E94120265E38DE20E94120269E0BB
:100B60008EE20E94120261E082E00E94120261E4C1
:100B700083E00E941202009346068EE70E94F7016E
:100B80000BE811E00F900F900F900F900F900F90C7
:100B9000F80184910E94F7010F5F1F4FF1E00239C5
:100BA0001F07B1F780E1809345068091730088604C
:100BB0008093730014E010930A0681E0809312067C
:100BC00010930C06789482E993E09F938F930E9490
:100BD000840387E593E09F938F930E9484031F9281
:100BE0001F9387E493E09F938F930E9484038091E7
:100BF00002101F928F9384E393E09F938F930E9440
:100C00008403809100101F928F9383E293E09F935F
:100C10008F930E9484036091001069830E94820276
:100C200069818AE00E9412026091021060932F2075
:100C300069830E948202698189E00E941202809188
:100C400073008860809373000E94820287E00E9494
:100C50000002682F616087E00E9412028091730099
:100C6000886080937300CDBFDEBF64E0D62E0FEFA7
:100C70001FEF78E6272E72E0372EE4E8EE2EE2E052
:100C8000FE2EF8EE8F2EF3E09F2EA12CB12CA2E9C0
:100C90004A2EA3E05A2EA7E26A2E712C80910008FA
:100CA0000E948202D0920C06CC24C394C092090602
:100CB00084E30E943102809173008E7F80937300E1
:100CC000C0920608F89410921A2010921B201092DD
:100CD0001C2010921D20A0E0B0E4A0932008B09347
:100CE00021087894009326081093270887E08093C2
:100CF0000008F89480910906882341F0809100084B
:100D00008823A1F1789488950000F3CF789486E247
:100D100090E20E944402813021F108F45DC08230EB
:100D2000D1F0833019F5D0920C06C092090684E305
:100D30000E94310280912E208F9380912D208F93DD
:100D4000A0E3B2E0BF93AF930E9484030F900F9093
:100D50000F900F90CECFFF92EF920E9414030F904E
:100D60000F903F922F920E94140333C0789486E331
:100D70000E94310285E70E9400028130D9F786E2A5
:100D800090E20E9444028230F1F0833059F08111E8
:100D900025C0A4E1B2E0BF93AF930E9484030F90FB
:100DA0000F901AC080912E208F9380912D208F93C9
:100DB000A3EDB1E0BF93AF930E9484030F900F9017
:100DC0000F900F900BC0A0EBB1E0BF93AF930E94C8
:100DD00084030F900F9002C081E001C080E09091E9
:100DE00073009860909373001092090610920008A7
:100DF00090917300916090937300882309F44ECF13
:100E00008091272081114ACF9091262080912F2018
:100E1000981344CF80912920813009F4F8C008F458
:100E200085C08B3F09F43ACF8D3F09F06FC18EE149
:100E300093E09F938F930E94E002F894809130207A
:100E400090913120A0913220B09133200F900F90DB
:100E500040911E2050911F206091202070912120F0
:100E6000481759076A077B0709F44EC08091302064
:100E700090913120A0913220B091332080931E2098
:100E800090931F20A0932020B0932120789460910C
:100E90001E2070911F208091202090912120A5017B
:100EA00094010E94B60B2093242030932520CB017F
:100EB00077276627A50194010E94B60B2093222074
:100EC00030932320F89420913420309135204091A4
:100ED0003620509137207894211531054105510570
:100EE00061F0C301B2010E94B60BC901817099275C
:100EF00036952795280F391F02C02FEF3FEF20931B
:100F000000203093012005C0109200201092012093
:100F100078948091282090912F2090933E201092D9
:100F20003D2080933F20109240206EC080912A2067
:100F30001F928F938BED92E09F938F930E94E0021C
:100F400020912A200F900F900F900F90203200F1E7
:100F50002A32A8F02033E1F48091282090912F20AC
:100F600090933E2010923D2080933F20109240208D
:100F700020934120109242201092432045C0E22F3E
:100F8000F0E0EE0FFF1FEA58FD4F859194910CC0E1
:100F9000213009F4C8C008F4E2C0273009F0FAC0D3
:100FA00080912420909125203091282040912F205D
:100FB00040933E2010923D2030933F2010924020DD
:100FC0002093412080934220909343201DC08AECBF
:100FD00092E09F938F930E94840380912A209091A6
:100FE000282020912F2020933E2010923D20909386
:100FF0003F2091E090934020809341200093422035
:10100000109343200F900F900E94480347CEC0904A
:101010002A2040912B2050912C205F934F931F92B8
:10102000CF9228EF32E03F932F9349835A838B83EB
:101030000E94E0020F900F900F900F900F900F9072
:1010400049815A818B8121E0C21249C02091282018
:10105000CA01807F892B89F080912F2080933E20C8
:1010600010923D2020933F20C0924020C09241200A
:101070000093422010934320C7CF82E040FF03C07B
:101080008093650602C08093660681E041FF03C03D
:101090008093650602C08093660680E442FF03C029
:1010A0008093650602C08093660680E143FF03C01B
:1010B0008093650602C08093660680912F208093FE
:1010C0003E2010923D2020933F201092402081E04E
:1010D00080934120409342205093432095CF27EEA8
:1010E00032E03F932F938B830E94840390912820BA
:1010F00020912F2020933E2010923D2090933F205E
:101100008B8180934020C09241207CCF1F928F938F
:1011100087E093E09F938F930E9484030F900F903A
:101120000F900F90BBCD9091640691FB882780F9BA
:1011300090FD826096FD846094FD886090912820E7
:1011400020912F2020933E2010923D2090933F200D
:101150001092402091E09093412090E033CF809115
:1011600000209091012030912F2020912820309351
:101170003E2010923D2020933F208F3FFFEF9F079E
:1011800021F421E02093402002C0109240201092D0
:10119000412018CF2A3009F01ACF80912220909157
:1011A000232002CFA0E0B0E0E8EDF8E00C94930B30
:1011B000AE01495F5F4FDA016D917D91AD0104E4AD
:1011C00010E2F80182819381DC0113962C91139730
:1011D000286013962C930E940709D8011296ED916E
:1011E000FC9113972381277F2383E4E00C94AC0BBD
:1011F000CF93DF93EC018B8188608B83CE010E94BB
:1012000007092B81277F2B83DF91CF910895ACE0D5
:10121000B0E0EDE0F9E00C94850B7C016B018A01F4
:10122000FC0116821782838181FFBDC1CE01019628
:101230004C01F7019381F60193FD859193FF819114
:101240006F01882309F4ABC1853239F493FD859190
:1012500093FF81916F01853229F4B70190E00E94DC
:10126000EF0AE7CF512C312C20E02032A0F48B3252
:1012700069F030F4803259F0833269F420612CC077
:101280008D3239F0803339F4216026C02260246029
:1012900023C0286021C027FD27C030ED380F3A3029
:1012A00078F426FF06C0FAE05F9E300D1124532E1D
:1012B00013C08AE0389E300D1124332E20620CC0FA
:1012C0008E3221F426FD6BC1206406C08C3611F4E9
:1012D000206802C0883641F4F60193FD859193FFA2
:1012E00081916F018111C1CF982F9F7D95549330CB
:1012F00028F40C5F1F4FFFE3F9830DC0833631F0F4
:10130000833771F0833509F05BC022C0F80180811A
:1013100089830E5F1F4F44244394512C540115C000
:101320003801F2E06F0E711CF801A080B18026FF39
:1013300003C0652D70E002C06FEF7FEFC5012C8701
:101340000E94E40A2C0183012C852F77222E17C0DE
:101350003801F2E06F0E711CF801A080B18026FF09
:1013600003C0652D70E002C06FEF7FEFC5012C87D1
:101370000E94D90A2C012C852068222E830123FC8F
:101380001BC0832D90E048165906B0F4B70180E2E7
:1013900090E00E94EF0A3A94F4CFF50127FC859182
:1013A00027FE81915F01B70190E00E94EF0A3110A2
:1013B0003A94F1E04F1A51084114510471F7E5C015
:1013C000843611F0893639F5F80127FF07C06081AE
:1013D0007181828193810C5F1F4F08C06081718190
:1013E000882777FD8095982F0E5F1F4F2F76722EDE
:1013F00097FF09C090958095709561957F4F8F4FAD
:101400009F4F2068722E2AE030E0A4010E94270B33
:10141000A82EA81844C0853729F42F7EB22E2AE0C2
:1014200030E025C0F22FF97FBF2E8F36C1F018F4BF
:10143000883579F0B4C0803719F0883721F0AFC013
:101440002F2F2061B22EB4FE0DC08B2D8460B82EDC
:1014500009C024FF0AC09F2F9660B92E06C028E05D
:1014600030E005C020E130E002C020E132E0F801C8
:10147000B7FE07C060817181828193810C5F1F4F2D
:1014800006C06081718180E090E00E5F1F4FA40173
:101490000E94270BA82EA818FB2DFF777F2E76FE23
:1014A0000BC0372D3E7FA51450F474FE0AC072FCA9
:1014B00008C0372D3E7E05C0BA2C372D03C0BA2C8C
:1014C00001C0B52C34FF0DC0FE01EA0DF11D808175
:1014D000803311F4397E09C032FF06C0B394B3944F
:1014E00004C0832F867809F0B39433FD13C030FF16
:1014F00006C05A2CB31418F4530C5B18B32CB31455
:1015000068F4B70180E290E03C870E94EF0AB39450
:101510003C85F5CFB31410F43B1801C0312C34FFD7
:1015200012C0B70180E390E03C870E94EF0A3C853F
:1015300032FF17C031FD03C088E790E002C088E5A4
:1015400090E0B7010CC0832F867859F031FF02C0BC
:101550008BE201C080E237FD8DE2B70190E00E948E
:10156000EF0AA51438F4B70180E390E00E94EF0A77
:101570005A94F7CFAA94F401EA0DF11D8081B701C6
:1015800090E00E94EF0AA110F5CF332009F451CE6C
:10159000B70180E290E00E94EF0A3A94F6CFF7019B
:1015A0008681978102C08FEF9FEF2C96E2E10C9429
:1015B0009E0BFC010590615070400110D8F780959A
:1015C00090958E0F9F1F0895FC016150704001900F
:1015D0000110D8F7809590958E0F9F1F08950F9357
:1015E0001F93CF93DF93FB01238121FD03C08FEF76
:1015F0009FEF28C022FF16C0468157812481358184
:101600004217530744F4A081B1819D012F5F3F4FE2
:10161000208331838C93268137812F5F3F4F268330
:10162000378310C0EB01092F182F0084F185E02DBE
:101630000995892BE1F68E819F8101968E839F8388
:10164000812F902FDF91CF911F910F910895FA0173
:10165000AA27283051F1203181F1E8946F936E7FF1
:101660006E5F7F4F8F4F9F4FAF4FB1E03ED0B4E0E2
:101670003CD0670F781F891F9A1FA11D680F791F23
:101680008A1F911DA11D6A0F711D811D911DA11D34
:1016900020D009F468943F912AE0269F1124301944
:1016A000305D3193DEF6CF010895462F4770405DDF
:1016B0004193B3E00FD0C9F7F6CF462F4F70405D8E
:1016C0004A3318F0495D31FD4052419302D0A9F7E9
:1016D000EACFB4E0A6959795879577956795BA95E3
:1016E000C9F700976105710508959B01AC010A2EA9
:1016F00006945795479537952795BA95C9F7620F80
:10170000731F841F951FA01D08952F923F924F9223
:101710005F926F927F928F929F92AF92BF92CF9281
:10172000DF92EF92FF920F931F93CF93DF93CDB78A
:10173000DEB7CA1BDB0BCDBFDEBF09942A88398810
:1017400048885F846E847D848C849B84AA84B98459
:10175000C884DF80EE80FD800C811B81AA81B98165
:10176000CE0FD11DCDBFDEBFED010895A1E21A2E2F
:10177000AA1BBB1BFD010DC0AA1FBB1FEE1FFF1F35
:10178000A217B307E407F50720F0A21BB30BE40B85
:10179000F50B661F771F881F991F1A9469F76095CC
:1017A0007095809590959B01AC01BD01CF01089586
:0417B000F894FFCFDB
:1017B400FFFF0000000300000000CD02C50200008E
:00000001FF
