:100000000C94CA000C94E7000C94E7000C94E700F1
:100010000C94E7000C94E7000C94E7000C94E700C4
:100020000C94E7000C94E7000C94E7000C94E700B4
:100030000C941C020C94E7000C94E7000C94E7006D
:100040000C94E7000C94E7000C94E7000C94E70094
:100050000C94E7000C94E7000C94E7000C94E70084
:100060000C94E7000C94E7000C94E7000C94E70074
:100070000C94E7000C94E7000C9406020C94E70043
:100080000C94E7000C94E7000C94E7000C94E70054
:100090000C94E7000C94E7000C94E7000C94E70044
:1000A0000C94E7000C94E7000C94E7000C94E70034
:1000B0000C94E7000C94E7000C94E7000C94E70024
:1000C0000C94E7000C94E7000C94E7000C94E70014
:1000D0000C94E7000C94E7000C94E7000C94E70004
:1000E0000C94E7000C94E7000C94E7000C94E700F4
:1000F0000C94E7000C94E7000C94E7000C94E700E4
:100100000C94E7000C94E7000C94E7000C94E700D3
:100110000C94E7000C94E7000C94E7000C94E700C3
:100120000C94E7000C94E7000C94E7000C94E700B3
:100130000C94E7000C94E7000C94E7000C94E700A3
:100140000C94E7000C94E7000C94E7000C94E70093
:100150000C94E7000C94E7000C94E7000C94E70083
:100160000C94E7000C94E7000C94E7000C94E70073
:100170000C94E7000C94E700C00000000000007938
:10018000B73AE1317980065DD36BA52AE3A9382B14
:10019000F17F070011241FBECFEFD7E2DEBFCDBF36
:1001A00010E2AEE0B0E201C01D92A533B107E1F765
:1001B00010E2A0E0B0E2EAE5FAE002C005900D929C
:1001C000AE30B107D9F70E9469020C942B050C944C
:1001D00000008093E3088091E20887FFFCCF8091C4
:1001E000E30808951F93CF93DF93C0E4D6E010E1B6
:1001F0001E8380680E94E90080E00E94E9001D8360
:10020000DF91CF911F910895EF92FF921F93CF93AB
:10021000DF931F92CDB7DEB790E4E92E96E0F92E7A
:1002200010E1F701168369830E94E9006981862F36
:100230000E94E900F70115830F90DF91CF911F9184
:10024000FF90EF900895CF93C82F80E180934606EA
:100250008C2F0E94E900C03321F48091480686FD6E
:10026000FCCF80E180934506CF910895EF92FF92F5
:100270000F931F93CF93DF93EC018BE70E94F20063
:10028000882341F197EF980F973728F08AE30E946F
:10029000230182E022C080E1809346068FEF0E9416
:1002A000E9008E017E0189E0E80EF11C80E00E94E9
:1002B000E900F80181938F01EE15FF05B9F780E1A0
:1002C000809345068AE30E942301888587FF04C046
:1002D00080E003C081E001C083E0DF91CF911F91F6
:1002E0000F91FF90EF900895E0E7F0E08381877F22
:1002F000838381E58093E00808951F920F920FB6E3
:100300000F9211242F933F934F935F936F937F939B
:100310008F939F93AF93BF93EF93FF9384E080936A
:100320000C060E9474018EE090E20E943601811159
:1003300005C0109217201092090603C084E30E94A2
:10034000230180917300886080937300FF91EF9187
:10035000BF91AF919F918F917F916F915F914F91DD
:100360003F912F910F900FBE0F901F901895809185
:10037000C10987FFFCCF8091C00990E00895CF9319
:10038000C82F8A3019F48DE00E94BF018091C10905
:1003900085FFFCCFC093C0098C2F992787FD9095CE
:1003A000CF910895CF93DF930E94740181E30E945F
:1003B000230180E1809346068FE70E94E900C8E2AE
:1003C000D0E289910E94E90080E2CF32D807C9F7D4
:1003D00080E18093450685E30E94230185E70E9422
:1003E000F200813041F48091730088608093730043
:1003F000DF91CF910895863189F78BE30E94230125
:1004000085E70E94F2008130D9F7EDCF0F920FB649
:100410000F922F9320911720222331F02F910F90CC
:100420000FBE0F900C947D012227209309062F9177
:100430000F900FBE0F9018951F920F920FB60F924C
:1004400011244F935F936F937F938F939F93AF93F9
:10045000BF938091182090911920A0911A20B091FB
:100460001B200097A105B10511F1AC01BD01442786
:100470005527452B462B472B51F011978093182079
:1004800090931920A0931A20B0931B2012C091952D
:10049000819591098093200890932108109218204B
:1004A0001092192010921A2010921B2002C0109254
:1004B000000881E080930C08BF91AF919F918F91CC
:1004C0007F916F915F914F910F900FBE0F901F9092
:1004D0001895CF93DF931F92CDB7DEB787E880934F
:1004E000700087E0809371008FE58093730082E154
:1004F00080937400809150008062809350008091BE
:10050000510085FFFCCF25E030E088ED90E084BF0E
:1005100020934000809150008E7F80935000809106
:1005200074008F7E8093740088E0809361068093CE
:1005300065068CEB8093C70985EE8093C60983E03E
:100540008093C4091092C2091092C50988E1809372
:10055000C30981E08093A2008093480080E090E28C
:1005600080932F20909330208093312090933220DD
:1005700010E1109341061093450684E08093020633
:1005800080EA809341062FEF80E792E0215080407F
:100590009040E1F700C000000E94740110934606ED
:1005A000EFEFF0E722E0E150F0402040E1F700C03B
:1005B00000008091480686FDFCCF10E110934506AF
:1005C00080E30E94230180E70E94F20081E70E94FD
:1005D000F20064E088E00E94040164E087E00E9489
:1005E000040167E086E00E94040162EA83E10E9460
:1005F000040166E08BE00E94040160E18DE00E944E
:10060000040161EB8EE00E94040166E48FE00E9429
:10061000040166EF80E10E94040163E881E10E9429
:10062000040163E182E10E94040165E185E10E9429
:10063000040168E188E10E94040166E189E10E9409
:1006400004016BEF80E20E94040169EE83E20E94E4
:1006500004016AE284E20E94040160E085E20E94F3
:1006600004016FE186E20E94040161E88CE20E94CD
:10067000040165E38DE20E94040169E08EE20E94BC
:10068000040161E082E00E94040161E483E00E94D1
:100690000401109346068EE70E94E90008E711E086
:1006A000F80184910E94E9000F5F1F4FF1E00F37BE
:1006B0001F07B1F780E18093450680917300886041
:1006C0008093730084E080930A0611E01093120671
:1006D00080930C0678946091001069830E947401E5
:1006E00069818AE00E94040160E070E08EEE0E9461
:1006F000BF0110931C202FEF89E698E12150804024
:100700009040E1F700C00000609102106093272044
:1007100069830E947401698189E00E9404018091CB
:1007200073008860809373000E94740187E00E94C8
:10073000F200682F616087E00E94040180917300DD
:1007400088608093730024E0C22EDD24D394E12CD2
:1007500030E4F32E0FEF1FEF47E0942E4424439430
:1007600054E6852E6AE0762E809100080E9474017E
:10077000C0920C06D092090684E30E942301809166
:1007800073008E7F80937300D0920608F8941092C5
:1007900018201092192010921A2010921B20E0921B
:1007A0002008F092210878940093260810932708D7
:1007B00090920008F89480910906882341F0809176
:1007C00000088823C1F0789488950000F3CF7894CE
:1007D0008EE190E20E943601833018F48130D0F02F
:1007E0001BC0833041F4C0920C06D092090684E30A
:1007F0000E942301DFCF789486E30E94230185E7DE
:100800000E94F2008130D9F78EE190E20E94360119
:10081000811102C081E001C080E090917300986076
:100820009093730010920906109200089091730043
:10083000916090937300882309F496CF80911F20D4
:10084000811192CF50901E208091272058128CCF7A
:1008500080912120813009F4C1C090F08D3F09F0D2
:1008600083CF8091202050922920109228208093BD
:100870002A2010922B200E94D20110921D2074CFAA
:10088000809122208A3260F4803208F059C0882397
:1008900099F0813009F08FC020911C2030E058C0C1
:1008A000909120208C3F09F464C08F3F09F470C000
:1008B000803309F080C05DC0A12CF4E0FA1508F483
:1008C00078C060E070E080E10E94BF0180E090E0CD
:1008D0000E94B701682E60E070E080E20E94BF01D4
:1008E00080E090E00E94B701B82E60E070E080E305
:1008F0000E94BF0180E090E00E94B701E9E0E615A8
:1009000020F0EB1510F08A3010F0A394D6CF909120
:1009100022202091202050922920109228202093DC
:100920002A2010922B2090932C20B79C9001112408
:10093000889D200D311D1124C901860D911D34C0E3
:10094000E82FF0E0EE0FFF1FE15CFE4F25913491A0
:1009500090912020509229201092282090932A20B4
:1009600010922B2080932C2020932D2030932E202A
:1009700032C0509229201092282090932A20109261
:100980002B2080932C2010922D2010922E2023C0FB
:10099000509229201092282090932A2010922B20E8
:1009A00080932C20852D90E080932D2090932E20F5
:1009B00012C08091222090912020509229201092E4
:1009C000282090932A2040922B2080932C20009363
:1009D0002D2010932E200E94D201C6CE609022209E
:1009E000A0902320B090242021E0621227C0A114FF
:1009F000B10441F460E070E083E30E94BF01109213
:100A00001C200BC081E0A816B10439F460E070E04E
:100A10008EEE0E94BF0160921C2080912020509297
:100A200029201092282080932A2010922B20409277
:100A30002C20A0922D20B0922E20CDCF909120205E
:100A4000509229201092282090932A2080932B20C6
:0A0A500060922C20C0CFF894FFCF75
:0E0A5A000000000300000000BF01B701000013
:00000001FF
