:100000000C9442000C946C010C945F000C945F0003
:100010000C945F000C9480010C94E4010C945F003C
:100020000C945F000C948C010C945F000C945F00A6
:100030000C945F000C949A010C945F000C945F0088
:100040000C945F000C945F000C945F000C945F00B4
:100050000C945F000C945F000C945F000C945F00A4
:100060000C945F000C945F00C0000000000000C40E
:1000700059B4227468F10B4F0D4FF24062FC7D724F
:10008000BFAC200011241FBECFEFD8E0DEBFCDBF34
:1000900021E0AEE0B1E001C01D92A533B207E1F767
:1000A00011E0A0E0B1E0E6ECF9E002C005900D92AD
:1000B000AE30B107D9F70E94EE010C94E1040C9424
:1000C00000008EBD0DB407FEFDCF8EB508952A9AAF
:1000D00008952A980895CF93DF931F92CDB7DEB786
:1000E00089830E946900898180680E94610080E0A4
:1000F0000E94610089830E94670089810F90DF91CF
:10010000CF910895CF93DF9300D0CDB7DEB76A8348
:1001100089830E94690089810E9461006A81862F1B
:100120000E9461000F900F90DF91CF910C946700B7
:10013000CF93C82F0E9469008C2F0E946100C033AA
:1001400011F41C99FECFCF910C946700EF92FF92AF
:100150000F931F93CF93DF93EC018BE70E946B000B
:10016000882331F197EF980F973728F08AE30E94A0
:10017000980082E020C00E9469008FEF0E94610019
:100180008E017E0189E0E80EF11C80E00E94610092
:10019000F80181938F01EE15FF05B9F70E94670002
:1001A0008AE30E949800888587FF04C080E003C02E
:1001B00081E001C083E0DF91CF911F910F91FF900B
:1001C000EF900895E4E6F0E080818B7F808381E505
:1001D0008CBD08951F920F920FB60F9211242F938A
:1001E0003F934F935F936F937F938F939F93AF93BF
:1001F000BF93EF93FF930E94E2008EE091E00E9494
:10020000A600811104C010921701E89803C084E38E
:100210000E94980080916400846080936400FF9144
:10022000EF91BF91AF919F918F917F916F915F916E
:100230004F913F912F910F900FBE0F901F901895E7
:100240008091C00087FFFCCF8091C60090E00895A8
:10025000CF93C82F8A3019F48DE00E942801809135
:10026000C00085FFFCCFC093C6008C2FCC0F990B2C
:10027000CF910895CF93DF930E94E20081E30E9423
:1002800098000E9469008FE70E946100C8E2D1E0F7
:1002900089910E94610081E0CF32D807C9F70E949E
:1002A000670085E30E94980085E70E946B0081301B
:1002B00041F480916400846080936400DF91CF9169
:1002C0000895863189F78BE30E94980085E70E94A4
:1002D0006B008130D9F7EDCF0F920FB60F922F93AD
:1002E00020911701222331F02F910F900FBE0F9014
:1002F0000C94EA00E8982F910F900FBE0F9018957C
:100300001F920F920FB60F921124109268000F9057
:100310000FBE0F901F9018951F920F920FB60F925D
:1003200011241092B1001092B2000F900FBE0F90E6
:100330001F9018951F920F920FB60F9211244F9392
:100340005F936F937F938F939F93AF93BF938091AE
:10035000180190911901A0911A01B0911B01009709
:10036000A105B10511F1AC01BD0144275527452B6D
:10037000462B472B51F01197809318019093190148
:10038000A0931A01B0931B0112C091958195910918
:1003900090938500809384001092180110921901A7
:1003A00010921A0110921B0102C010928100BF919D
:1003B000AF919F918F917F916F915F914F910F902E
:1003C0000FBE0F901F9018951F920F920FB60F92AD
:1003D00011240F900FBE0F901F901895CF93DF93AD
:1003E0001F92CDB7DEB787E480937C0080916400D4
:1003F0008F6E80936400809164008D7F8093640091
:100400001092C50087E68093C4008091C0008D7F64
:100410008093C00086E08093C20088E18093C10091
:1004200083B7817F83BF83B7816083BF80E091E022
:100430009093300180932F0190933201809331018A
:10044000229A24980E94670052985A9884B1886230
:1004500084B92FEF80E792E0215080409040E1F78F
:1004600000C000000E94E2000E946900EFEFF0E788
:1004700022E0E150F0402040E1F700C000001C996C
:10048000FECF0E94670080E30E94980080E70E94F0
:100490006B0081E70E946B0064E088E00E948200AC
:1004A00064E087E00E94820067E086E00E948200AC
:1004B00062EA83E10E94820066E08BE00E94820093
:1004C00060E18DE00E94820061EB8EE00E9482007C
:1004D00061E68FE00E94820066EF80E10E94820068
:1004E00063E881E10E94820063E182E10E94820070
:1004F00065E185E10E94820068E188E10E94820056
:1005000066E189E10E9482006BEF80E20E94820036
:1005100069EE83E20E9482006AE284E20E94820025
:1005200060E085E20E9482006FE186E20E94820024
:1005300061E88CE20E94820065E38DE20E94820005
:1005400069E08EE20E94820061E082E00E94820007
:1005500061E483E00E9482000E9469008EE70E94AD
:10056000610008E610E0F80184910E9461000F5FCD
:100570001F4FF0E00F361F07B1F70E946700809110
:10058000640084608093640080916900836080933C
:10059000690011E01CBB789480E090E00E94CB04DD
:1005A00089830E94E2008981682F8AE00E9482008C
:1005B00060E070E08EEE0E94280110931C012FEF86
:1005C00089E698E1215080409040E1F700C00000AA
:1005D00082E090E00E94CB048093270189830E94EF
:1005E000E2008981682F89E00E9482008091640086
:1005F0008460809364000E94E20087E00E946B00A8
:10060000682F616087E00E948200809164008460AE
:100610008093640080912701809329011092280122
:100620008FEF80932A010E943A01A12C60E4B62E3C
:1006300005E033243394CC24CA94DC2CE0EC9E2EC9
:1006400088248A94F4E67F2EAAE06A2E80918100A5
:100650000E94E2001CBBE89A84E30E94980080910B
:100660006400877F8093640010936F00F894109269
:1006700018011092190110921A0110921B01B092E8
:100680008500A092840078940093810083B7817FD5
:1006900083BF83B7816083BFF894E89B08C08091D3
:1006A00081008823B1F0789488950000F5CF789484
:1006B0008EE191E00E94A600833018F48130C0F0F2
:1006C00019C0833031F41CBBE89A84E30E9498007F
:1006D000E3CF789486E30E94980085E70E946B0040
:1006E0008130D9F78EE191E00E94A600811102C00D
:1006F00081E001C080E09091640094609093640078
:10070000E898109281009091640098609093640042
:10071000882309F49BCF80911F01811197CF4090CE
:100720001E0180912701481291CF809121018130D3
:1007300009F4F4C090F08D3F09F088CF809120013A
:10074000409229011092280180932A0110922B01D6
:100750000E943A0110921D0179CF80912201382F19
:100760008A3260F4803208F06AC0882321F1813037
:1007700009F0C1C020911C0130E069C08C3F09F430
:1007800077C020F4803309F473C0B5C08E3F09F4FC
:1007900080C08F3F09F0AFC08091200140922901B5
:1007A0001092280180932A0110922B0180922C0133
:1007B000842D90E099C0E12CF4E0FE1508F499C076
:1007C00060E070E080E10E94280180E090E00E94FB
:1007D0002001582E60E070E080E20E94280180E055
:1007E00090E00E942001F82E60E070E080E30E941B
:1007F000280180E090E00E942001E9E0E51520F06A
:10080000EF1510F08A3010F0E394D6CF90912201CA
:1008100020912001409229011092280120932A0161
:1008200010922B0190932C01F69C90011124879D2E
:10083000200D311D1124C901850D911D55C0E82FD2
:10084000F0E0EE0FFF1FE15DFF4F25913491909195
:100850002001409229011092280190932A011092C0
:100860002B0180932C0130932E0120932D0153C036
:1008700090912001409229011092280190932A0121
:1008800010922B0180932C0110922E0110922D01B9
:1008900042C0809164008E7F8093640090927A00C1
:1008A00080917A0086FDFCCF2091790080917800BC
:1008B00010927A00909164009160909364009091FE
:1008C0002001409127014093290110922801909323
:1008D0002A0110922B0130932C0190E0922B9C0165
:1008E000220F331F820F931F90932E0180932D01AF
:1008F00012C0809122019091200140922901109212
:10090000280190932A0130922B0180932C01D092E0
:100910002E01C0922D010E943A0198CE50902201E2
:10092000E0902301F090240121E0521227C0E1144D
:10093000F10441F460E070E083E30E94280110922A
:100940001C010BC081E0E816F10439F460E070E0AE
:100950008EEE0E94280150921C018091200140924D
:1009600029011092280180932A0110922B013092C4
:100970002C01F0922E01E0922D01CDCF909120011B
:10098000409229011092280190932A0180932B0113
:1009900050922C01C0CFF999FECF92BD81BDF89A3B
:1009A000992780B50895262FF999FECF1FBA92BDD9
:1009B00081BD20BD0FB6F894FA9AF99A0FBE019640
:0609C0000895F894FFCF3A
:0E09C6000000000300000000280120010000D6
:00000001FF
